:020000040800F2
:1000000078070020E101000889070008810700083F
:100010008507000861060008BB1100080000000009
:10002000000000000000000000000000210E000899
:10003000650600080000000011080008350F0008E0
:10004000FB010008FB010008FB010008FB010008A0
:10005000FB010008FB010008FB010008FB01000890
:10006000FB010008FB010008FB010008FB01000880
:10007000FB010008FB010008FB010008FB01000870
:10008000FB010008FB010008FB010008FB01000860
:10009000FB010008FB010008FB010008FB01000850
:1000A000FB010008FB010008FB010008FB01000840
:1000B000FB010008FB010008FB010008FB01000830
:1000C000FB010008FB010008FB010008FB01000820
:1000D000FB010008990F0008FB010008FB01000864
:1000E000FB010008FB010008FB010008FB01000800
:1000F000FB010008FB010008FB010008FB010008F0
:10010000FB010008FB010008FB010008FB010008DF
:10011000FB010008FB010008FB010008FB010008CF
:10012000FB010008FB010008FB010008FB010008BF
:1001300000F002F800F044F80AA090E8000C8244B5
:100140008344AAF10107DA4501D100F039F8AFF292
:10015000090EBAE80F0013F0010F18BFFB1A43F0A5
:10016000010318476412000084120000103A24BFF3
:1001700078C878C1FAD8520724BF30C830C144BF0C
:1001800004680C607047000000230024002500264E
:10019000103A28BF78C1FBD8520728BF30C148BFEA
:1001A0000B60704703681B0A28BF41F08001E429F7
:1001B00000F0BA80002070471FB51FBD10B510BDFC
:1001C00000F01CFA1146FFF7F7FF01F051F800F0BC
:1001D0003AFA03B4FFF7F2FF03BC00F0F0FF0000AF
:1001E0000948804709480047FEE7FEE7FEE7FEE7CB
:1001F000FEE7FEE7FEE7FEE7FEE7FEE70448054907
:10020000054A064B70470000390F0008310100080D
:100210007801002078070020780300207803002070
:10022000704753EA020C00F069802DE9F04B4FF063
:100230000006002B1FBFB3FA83F503FA05F424FA76
:1002400005F65E4012BF1643B2FA82F502FA05F4D3
:10025000C5F120051EBF22FA05FC44EA0C04203536
:1002600056EA044C4FEA144418BF641C4FF00008CF
:100270004FF00009904271EB030C39D3002919BFEC
:10028000B1FA81F701FA07F6B0FA80F700FA07F63B
:10029000C7F120071EBF20FA07FC46EA0C062037EC
:1002A000B6FBF4FCA7EB0507103F07F01F0BCBF1E3
:1002B00020060CFA0BFB2CFA06F644BFB3460026C8
:1002C000202FA4BF5E464FF0000B5BEA060C08BF70
:1002D0004FF0010B19EB0B09ABFB027C48EB060856
:1002E000C01B06FB02CC0BFB03CC71EB0C01C1E77E
:1002F0000B46024641464846BDE8F08B13B54FF029
:1003000000004FF00001AFF30080BDE81C407047D3
:100310000FB4044910B503AA029800F041F910BCCB
:100320005DF814FB1C0000202DE9F0418046D21D31
:1003300022F007020025D2E90002F52915A614D003
:10034000011E72F1000106DA0023D0EB030063EB1B
:10035000020211A608E0D8F800108B0701D50FA6FD
:1003600002E0490701D50EA601251146002408F137
:10037000240704E000F076F830323A55641C50EA65
:100380000102F7D12B46324621464046BDE8F041F6
:1003900000F0ADB8000000002D0000002B000000B0
:1003A000200000002DE9F0410F460546002028629C
:1003B0002846E968884770B3252805D0D5E901218A
:1003C0009047286A401CF2E7E968284600268847DB
:1003D0006C2804460AD0682C08D04C2C35D06A2CE6
:1003E00031D0742C31D07A2C2FD016E0E968064633
:1003F00028468847B042044608D16C2E23D04FF4DB
:1004000080662846E9688847044606E06C2E03D0DB
:100410004FF4807601E01EE04026E4B1A4F14100F3
:10042000192802D8203446F400663A462146284668
:100430002E60FFF7B7FE60B1012808D0FF1D27F03E
:1004400007070837B4E78026DBE70026D9E73F1D1A
:10045000AEE72046B2E7286ABDE8F08170477047F2
:100460007047704730B5B0F10A024FEA900E71F153
:1004700000034EEA817EB0EB0E0061EB91014FEA82
:10048000101E4EEA017E10EB0E0041EB11114FEAF7
:10049000102E4EEA016E10EB0E0041EB11214FEAD7
:1004A000104E4EEA014E10EB0E0041EB1141401888
:1004B00041F100014FEAD00040EA41704FEAD1011A
:1004C00010EB80054FEA810444EA907444EB010488
:1004D0006D1944EB0404521BA3414FF0000348BFC5
:1004E0000A3200D530BD401C41F1000130BD2DE97C
:1004F000F0470D4699469246044600F124080168EB
:10050000880604D5E06921F01001216000E0012097
:10051000A84201DD471B00E00027A1697A1902EB20
:100520000900081AA0612078C00602D42046AFF363
:100530000080002608E0D4E901211AF8060090475F
:10054000206A401C761C20624E45F4DB2078C006F1
:100550000AD52046AFF3008006E0D4E9012130201F
:100560009047206A401C2062381EA7F10107F4DC86
:1005700007E0D4E9012118F805009047206A401CE3
:100580002062281EA5F10105F3DC2046AFF30080B0
:100590002078000602D50220BDE8F0870120FBE7A5
:1005A000074B70B50D467B4400F011F80446284611
:1005B00000F020F810B14FF0FF3070BD204670BD44
:1005C000AB0C000001694A1C02610878704700B555
:1005D0008FB0CDE901310021059105497944CDE97C
:1005E000031011466846FFF7DDFE0FB000BD0000A6
:1005F000E5FFFFFF007B00F080007047754600F0CC
:100600002BF8AE4605006946534620F007008546A4
:1006100018B020B5FFF7F2FDBDE820404FF000060E
:100620004FF000074FF000084FF0000B21F00701DA
:10063000AC46ACE8C009ACE8C009ACE8C009ACE81D
:10064000C0098D46704710B50446AFF300802046C0
:10065000BDE81040FFF7BDBD004870471401002001
:1006600000BFFEE770472DE9F04102460025002655
:10067000002000230024002791F803C00CF00F0590
:1006800091F803C00CF0100CBCF1000F03D091F8EE
:1006900002C04CEA050591F800C0BCF1000F31D052
:1006A000146800202BE04FF0010C0CFA00F3B1F8B5
:1006B00000C00CEA03069E4220D183004FF00F0CCD
:1006C0000CFA03F7BC4305FA03FC4CEA040491F866
:1006D00003C0BCF1280F06D14FF0010C0CFA00FC4E
:1006E000C2F814C00AE091F803C0BCF1480F05D16C
:1006F0004FF0010C0CFA00FCC2F810C0401C082896
:10070000D1D31460B1F800C0BCF1FF0F34DD5468E0
:1007100000202EE000F1080C4FF0010808FA0CF35D
:10072000B1F800C00CEA03069E4221D183004FF0CD
:100730000F0C0CFA03F7BC4305FA03FC4CEA040463
:1007400091F803C0BCF1280F05D100F1080C08FA9C
:100750000CF8C2F8148091F803C0BCF1480F07D11F
:1007600000F1080C4FF0010808FA0CF8C2F81080EC
:10077000401C0828CED35460BDE8F0810161704769
:1007800000BFFEE700BFFEE77047000070B5002124
:1007900000230F22C47804B3154C246804F4E064E9
:1007A000C4F5E064210AC1F10403CA40447804FAA4
:1007B00003F184781440214309010E4C0678A155B9
:1007C000047804F01F050124AC4005786D11AD00DC
:1007D00005F1E025C5F8004109E0047804F01F05A3
:1007E0000124AC40044D0678761145F8264070BDD2
:1007F0000CED00E000E400E080E100E0024901438C
:10080000024A1160704700000000FA050CED00E09C
:100810007047000029B1064A92690243044B9A616D
:1008200004E0034A92698243014B9A6170470000D9
:100830000010024030B500210022002400232D4D7D
:100840006D6805F00C0121B1042905D0082923D1D8
:1008500005E0294D056022E0274D05601FE0254D8C
:100860006D6805F47012234D6D6805F4803402251F
:1008700005EB92421CB9214D554305600BE01D4D1F
:100880006D6805F400351DB11C4D5543056002E04F
:10089000194D5543056002E0174D056000BF00BFCC
:1008A000144D6D6805F0F0010909154D6B5C056884
:1008B000DD4045600F4D6D6805F4E061090A104D9B
:1008C0006B5C4568DD4085600A4D6D6805F46051DC
:1008D000C90A0B4D6B5C4568DD40C560054D6D6810
:1008E00005F44041890B074D6B5CC568B5FBF3F51A
:1008F000056130BD0010024000127A0000093D0081
:10090000220000203200002010B5012002490860BA
:10091000FF2000F067F910BD8C01214270B505463B
:1009200001220021092000F07DF9044624B910219C
:10093000284600F01BF90446FFF7E6FF0CB1012042
:1009400070BD0020FCE770B5054640F6FF7401E07D
:10095000601E84B2FF2000F045F9A84201D0002CAF
:10096000F6D10CB9FF2070BD0020FCE77FB56846CA
:10097000FFF7D4FF10B1002004B070BD9DF8000057
:1009800000F0C000402809D19DF809009DF808102A
:1009900000EB0120401C84B2A50220E09DF8050078
:1009A00000F00F009DF80A1000EBD1109DF809101F
:1009B00001F0030100EB4100861C9DF80800801146
:1009C0009DF8071000EB81009DF8061001F003016F
:1009D00000EB8120441CA6F1090004FA00F528462A
:1009E000CAE70000F8B500F0DDF800F006F90025D0
:1009F00004E0FF2000F0F6F8681C85B20A2DF8DB51
:100A0000142600BF95220021084600F00BF9044689
:100A1000012C04D0301EA6F101018EB2F2D10020CB
:100A200051490870012C4AD187224FF4D571082012
:100A300000F0F8F8012847D1002506E0FF2000F07B
:100A4000D1F80DF80500681C85B2042DF6DB9DF881
:100A50000200012879D19DF80300AA2875D14FF62C
:100A6000FE7600BF01220021372000F0DBF80122D2
:100A70009107292000F0D6F8044624B1301EA6F1D3
:100A800001018EB2EED1002E5FD0012200213A206A
:100A900000F0C8F8002858D1002506E0FF2000F03B
:100AA000A1F80DF80500681C85B2042DF6DB9DF851
:100AB000000000F0400018B106202B49087044E007
:100AC00004202949087040E001220021372000F06D
:100AD000A9F801220021292000F0A4F80446012CE5
:100AE00017DC0220204908704FF6FE7600BF012275
:100AF0000021372000F096F801220021292000F083
:100B000091F80446BCB1301EA6F101018EB2EED1BF
:100B100011E00120144908704FF6FE7600BF012253
:100B20000021104600F07EF8044624B1301EA6F1E4
:100B300001018EB2F3D12EB101225102102000F03A
:100B400071F810B1002008490870FFF7DDFE00F0D1
:100B50004FF80548007808B10020F8BD0CB12046D8
:100B6000FBE7AA20F9E700001400002070B5044656
:100B70000D46FE20FFF7E7FE08B1012070BD04E03E
:100B8000FF2000F011F92070641C281EA5F101015E
:100B90008DB2F5D1FF2000F025F8FF2000F022F8FB
:100BA0000020EBE708B501210420FFF733FE082001
:100BB000ADF8000010208DF8030003208DF802002E
:100BC00069460648FFF74FFD08210448FFF7D6FDA8
:100BD00000F0AEF801200249086008BD000801409D
:100BE0008C01214210B50446204600F0DDF810BD0E
:100BF00010B5002000F002F910BD10B5382000F04B
:100C0000FDF810BD10B500200549086000F046F859
:100C100008B9002010BDFFF777FE0120FAE70000B9
:100C20008C0121422DE9F04105460C4617464FF054
:100C30000008FFF769FEFFF7E5FF10B1FF20BDE8F0
:100C4000F08145F04000FFF7CDFF200EFFF7CAFF0F
:100C5000C4F30740FFF7C6FFC4F30720FFF7C2FF46
:100C6000E0B2FFF7BFFF3846FFF7BCFF0C2D02D103
:100C7000FF20FFF7B7FF4FF01F0800BFFF20FFF76F
:100C8000B1FF064606F0800030B1B8F10000A8F1CF
:100C9000010101F0FF08F1D13046D0E710B5002482
:100CA00000BFFF20FFF79EFFFF2801D1002010BDED
:100CB000641C6FF07F408442F3D30120F7E721B139
:100CC000028842F04002028004E002884FF6BF73BF
:100CD0001A40028070470246002013890B400BB176
:100CE000012000E00020704701468889704781811B
:100CF000704710B50022028802F441520B884C88DC
:100D000023438C882343CC8823430C8923434C8979
:100D100023438C892343CC8923431A430280838B4A
:100D20004FF2FF74234083830B8A038210BD0000BF
:100D300008B5012141F20400FFF76CFDE020ADF899
:100D4000000018208DF8030003208DF8020069468A
:100D50001248FFF788FCE0211048FFF70FFD002044
:100D60000F4908804FF4827048800020888002205C
:100D7000C8800120088140024881382088810020F5
:100D8000C881072008820748FFF7B3FF0121054803
:100D9000FFF795FFFF2000F007F808BD00080140AD
:100DA000380000200030014070B50546002405E001
:100DB000601CC4B2C82C01DD002070BD02210E48A9
:100DC000FFF789FF0028F3D029460B48FFF78FFF74
:100DD000002405E0601CC4B2C82C01DD0020ECE753
:100DE00001210548FFF777FF0028F3D00248FFF7FD
:100DF0007BFFC0B2E1E700000030014010B50446BF
:100E00000548848101460548FFF773FF0121034827
:100E1000FFF755FF10BD00003800002000300140F2
:100E2000704710B500F002F810BD00000CB50020AE
:100E3000019000903348006840F4803031490860E8
:100E400000BF3048006800F4003000900198401C5A
:100E50000190009818B90198B0F5A06FF1D1294818
:100E6000006800F4003010B10120009001E0002083
:100E700000900098012843D12348006840F01000FA
:100E8000214908600846006820F003000860084611
:100E9000006840F0020008601A484068194948603C
:100EA0000846406848600846406840F480604860F2
:100EB0000846406820F47C1048600846406840F4CA
:100EC000E81048600846006840F08070086000BF85
:100ED0000C48006800F000700028F9D0094840680C
:100EE00020F00300074948600846406840F00200CF
:100EF000486000BF0348406800F00C000828F9D1A2
:100F00000CBD00000010024000200240042808D15F
:100F10004FF0E021096941F004014FF0E022116136
:100F200007E04FF0E021096921F004014FF0E022D1
:100F3000116170477047000010B51348006840F019
:100F400001001149086008464068104908400E49F0
:100F50004860084600680E4908400B49086008468A
:100F6000006820F4802008600846406820F4FE00F5
:100F700048604FF41F008860FFF753FF4FF0006098
:100F80000449086010BD0000001002400000FFF896
:100F9000FFFFF6FE08ED00E010B540F225511D48B8
:100FA00000F04AF810B31B4800F002F9C4B21A4826
:100FB000008800F40040C8B91748008800F4804059
:100FC00060B10A2C03D000201349088020E01248A9
:100FD000008840F400401049088019E00D2C06D12B
:100FE0000D48008840F480400B49088010E00A4812
:100FF0000088C0F30D0009490C5407480088401CC4
:101000000549088008460088C72801DD00200880BF
:1010100010BD000000380140200000204A000020E0
:1010200021B1828942F40052828104E082894DF626
:10103000FF731A408281704770B502460024002376
:101040000025002040F66A16B14200D100BFC1F36E
:10105000421501F01F03012606FA03F3012D02D108
:101060009689334006E0022D02D1168A334001E012
:10107000968A33400C12012606FA04F4168834408E
:1010800013B10CB1012000E0002070BDF0B50346A3
:10109000002400260025002040F66A17B94200D13E
:1010A00000BF1846C1F3421401F01F06012707FADA
:1010B00006F5012C01D10C3004E0022C01D11030D6
:1010C00000E014301AB107682F43076002E0076898
:1010D000AF430760F0BD00002DE9F04786B005463C
:1010E0000E460024A24600BFA1460027B08900B1E9
:1010F00000BF2F462C8A4CF6FF700440F088044352
:101100002C82AC894EF6F3100440B0883189084334
:10111000718908430443AC81AC8A4FF6FF40044018
:10112000B0890443AC8201A8FFF784FB1F488742C3
:1011300002D1DDF810A001E0DDF80CA0A88900F4D0
:10114000004040B10AEBCA0000EB0A1031684900C8
:10115000B0FBF1F807E00AEBCA0000EB0A103168B7
:101160008900B0FBF1F86420B8FBF0F0040120091D
:10117000642101FB1089A88900F4004040B13220AD
:1011800000EBC900B0FBF1F000F00700044308E0F9
:10119000322000EB09106421B0FBF1F000F00F00E9
:1011A00004432C8106B0BDE8F08700000038014000
:1011B00001468888C0F30800704700BFFEE701467B
:1011C00000BF704710B56FF00400FFF79FFE0A489C
:1011D00000680A49B0FBF1F0094908700846007838
:1011E00000EB4001C1EBC0104FF6FF7101EAC000F7
:1011F0000449088010BD00000000002000127A00A1
:1012000016000020180000200146114A12884A43A7
:101210004FF0E0235A6100229A611A46126942F0A7
:1012200001021A6100BF4FF0E022106900F00102D4
:101230001AB100F48032002AF5D04FF0E022126992
:1012400022F001024FF0E0231A6100229A617047F8
:101250001800002000BF054A128802F04002002A50
:10126000F9D0C2B2014B1B1D1A80704700380140F3
:1012700000BFFFF761FE4FF4A060FFF7BFFAFFF772
:10128000A1FF4FF4E13000F04FF806E016A0FFF7A1
:101290003FF84FF47A70FFF7B7FFFFF7A3FB002882
:1012A000F4D1FFF763FB002504464FF400734FF0C1
:1012B000000C2146A1FB036A05FB03A204FB0C21E1
:1012C0005A0063463046FEF7ACFF80464FF480621A
:1012D0000023FEF7A6FF04460D4622462B460BA030
:1012E000FFF716F800BFFEE723235B5761726E69B4
:1012F0006E675D3A207364206361726420696E6971
:1013000074206661696C6564210D0A0023205344D2
:1013100020436172642053697A653A20256C6C64BD
:101320004D420D0A0000000010B586B004460121B0
:1013300044F20400FFF76EFA4FF40070ADF81400A9
:1013400003208DF8160018208DF8170005A91C48F9
:10135000FFF789F94FF48060ADF8140004208DF890
:10136000170005A91648FFF77EF925208DF8000023
:1013700003208DF801008DF8020001208DF8030094
:101380006846FFF703FA01940020ADF80800ADF8B5
:101390000A00ADF80C00ADF810000C20ADF80E00FE
:1013A00001A90848FFF798FE012240F2255105489F
:1013B000FFF76CFE01210348FFF732FE06B010BDB7
:1013C0000008014000380140E81300080000002038
:1013D000380000006C0100082014000838000020CC
:1013E000400700008801000800A24A040000000035
:1013F00000000000010203040607080900000000C5
:1014000000000000000000000000000000000102D9
:101410000304010203040607080902040608000089
:04000005080001E10D
:00000001FF
