:020000040800F2
:10000000080D00203D02000839130008F70600081B
:1000100035130008E9060008D715000800000000A5
:100020000000000000000000000000009513000820
:10003000ED060008000000003B13000885140008CE
:10004000570200085702000857020008570200082C
:10005000570200085702000857020008570200081C
:10006000570200085702000857020008570200080C
:1000700057020008570200085702000857020008FC
:1000800057020008570200085702000857020008EC
:1000900057020008570200085702000857020008DC
:1000A00057020008570200085702000857020008CC
:1000B00057020008570200085702000857020008BC
:1000C00057020008570200085702000857020008AC
:1000D00057020008F11400085702000857020008F0
:1000E000570200085702000857020008570200088C
:1000F000570200085702000857020008570200087C
:10010000570200085702000857020008570200086B
:10011000570200085702000857020008570200085B
:10012000570200085702000857020008570200084B
:10013000570200085702000857020008570200083B
:10014000570200085702000857020008570200082B
:10015000570200085702000857020008570200081B
:10016000570200085702000857020008570200080B
:1001700057020008570200085702000857020008FB
:10018000570200085702000800F002F800F047F894
:100190000AA090E8000C82448344AAF10107DA45E2
:1001A00001D100F03CF8AFF2090EBAE80F0013F0ED
:1001B000010F18BFFB1A43F0010318471C2E000063
:1001C0003C2E0000103A24BF78C878C1FAD85207F4
:1001D00024BF30C830C144BF04680C6070470000C1
:1001E0000023002400250026103A28BF78C1FBD840
:1001F000520728BF30C148BF0B607047642900F028
:100200009B80782900F0D480732900F008820020B8
:1002100070471FB502F07EFE1FBD10B510BD00F087
:1002200031FA1146FFF7F5FF02F008FC00F04FFA33
:1002300003B4FFF7F2FF03BC01F0D6F90948804789
:1002400009480047FEE7FEE7FEE7FEE7FEE7FEE7B8
:10025000FEE7FEE7FEE7FEE704480549054A064BD0
:100260007047000089140008890100080807002071
:10027000080D002008090020080900207047000030
:100280000FB4044910B503AA029800F0CDF910BCD0
:100290005DF814FB1000002070B504468569006805
:1002A000C10601D5302600E02026C00707D070BD6A
:1002B000D4E9012130469047206A401C20626D1E1F
:1002C000F6D570BD70B5044685690078C00707D1C2
:1002D00070BDD4E9012120209047206A401C206293
:1002E0006D1EF6D570BD70B50C460546012A05D0C9
:1002F0002878800600D5EA69002302E0012305E0A2
:100300005B1C934202D2E05C0028F9D1A869E61890
:10031000C01AA861286A184428622846FFF7BCFF63
:1003200004E0D5E9012114F8010B9047B442F8D359
:100330002846FFF7C7FF70BD2DE9F04106460024AF
:1003400010687529314616A510D0AFF3008000283B
:1003500002DA404213A507E031688A0701D512A5E9
:1003600002E0490704D511A5012401E0AFF30080A4
:1003700000210A2206F1240709E0B0FBF2FCB0FBE1
:10038000F2F302FB1C00303078541846491C002858
:10039000F3D123462A463046BDE8F04100F0D4B8F8
:1003A000000000002D0000002B00000020000000D5
:1003B00070B504460D4621461068AFF300802188D1
:1003C000090502D50F4A7A4402E00E4A7A440E32F9
:1003D000002104F1240305E000F00F060009965DFA
:1003E0005E54491C0028F7D120780023000704D56B
:1003F000702D02D009B1022311322046BDE87040B1
:1004000000F0A2B8D42B00002DE9F05F8946044625
:100410004FF0000ADFF824B1FB44C0F820A02046CA
:10042000E168884700287DD0252806D0D4E901213D
:100430009047206A401C2062F1E700255F46204675
:10044000E16888472028064607DB312E05D2B81917
:1004500010F8200C08B10543F1E7A80701D525F0F5
:100460000405C4F81CA00027C4F818A02A2E09D03F
:10047000304601F0B2F838B304EB8708303EC8F8D4
:10048000186019E059F8041B204604EB87029161BB
:10049000E1688847012F064618D1E069002820DA74
:1004A00025F020051DE0D8F8180000EB800006EBD1
:1004B00040003038C8F818002046E16888470646F2
:1004C00001F08BF80028EED1012F0AD02E2E08D192
:1004D0002046E16888477F1C0646022F45F020052C
:1004E000C4DBA069002803DA404245F00105A061A1
:1004F000E80701D025F01005A6B1A6F141001928A2
:1005000002D8203645F400654A463146204625602B
:100510004D46FFF773FE60B1012807D0ED1D25F0B1
:10052000070000E007E000F1080978E705F1040999
:1005300075E730467AE7206ABDE8F09FAA2B0000F5
:1005400070477047704770472DE9F0470D46994650
:100550009246044600F124080168880604D5E06943
:1005600021F01001216000E00120A84201DD471BBD
:1005700000E00027A1697A1902EB0900081AA061BE
:100580002078C00602D42046FFF786FE002608E049
:10059000D4E901211AF806009047206A401C761C15
:1005A00020624E45F4DB2078C0060AD52046FFF7CE
:1005B00073FE06E0D4E9012130209047206A401CF8
:1005C0002062381EA7F10107F4DC07E0D4E901211D
:1005D00018F805009047206A401C2062281EA5F1EB
:1005E0000105F3DC2046FFF76DFE2078000602D5FA
:1005F0000220BDE8F0870120FBE710B5436913B185
:10060000AFF3008001E0FFF76EFE012010BD12780D
:1006100000F124010A7000224A700122EDE71168FE
:100620004FF0FF32E9E70000074B70B50D467B4401
:1006300000F011F80446284600F020F810B14FF001
:10064000FF3070BD204670BD0723000001694A1CC1
:1006500002610878704700B58FB0CDE90131002103
:10066000059105497944CDE9031011466846FFF725
:10067000CBFE0FB000BD0000E5FFFFFF007B00F0E8
:1006800080007047754600F02BF8AE4605006946BD
:10069000534620F00700854618B020B5FFF7DCFD73
:1006A000BDE820404FF000064FF000074FF0000873
:1006B0004FF0000B21F00701AC46ACE8C009ACE8F4
:1006C000C009ACE8C009ACE8C0098D46704710B558
:1006D0000446AFF300802046BDE81040FFF7A8BDF8
:1006E00000487047A806002000BFFEE7704741831E
:1006F00070470183704700BFFEE730B589B00446FC
:10070000FF220021092000F07FFDC5B215B1284667
:1007100009B030BD0122102105A800F031FD08B15B
:100720000120F5E7FF2200210A2000F06DFDC5B28F
:100730000DB12846ECE70122102101A800F020FDB0
:1007400008B10220E4E79DF81400800920709DF8AC
:100750001400C0F3830060709DF8140000F00300E3
:10076000A0709DF81500E0709DF8160020719DF8AE
:10077000170060719DF818000001E080E0889DF886
:10078000191040EA1110E0809DF8190000F00F00E8
:1007900020729DF81A00C00960729DF81A00C0F31B
:1007A0008010A0729DF81A00C0F34010E0729DF80E
:1007B0001A00C0F300102073002060739DF81A0027
:1007C0008007000D20619DF81B10206940EA810020
:1007D00020619DF81C10206940EA911020619DF86D
:1007E0001C00C0F3C20020759DF81C0000F007003B
:1007F00060759DF81D004009A0759DF81D00C0F3AF
:100800008200E0759DF81D008007400F2076207E55
:100810009DF81E1040EAD11020769DF81E00C0F30E
:10082000840060769DF81E008007C00EA076A07E32
:100830009DF81F1040EA5110A0769DF81F0000F0AF
:100840001F00E0769DF82000C00920779DF8200069
:10085000C0F3411060779DF82000C0F38200A077BC
:100860009DF820008007000FE077E07F9DF82110C1
:1008700040EA9110E0779DF82100C0F3401084F821
:100880002000002084F821009DF8210000F00100E4
:1008900084F822009DF82200C00984F823009DF806
:1008A0002200C0F3801084F824009DF82200C0F3D9
:1008B000401084F825009DF82200C0F3001084F851
:1008C00026009DF82200C0F3810084F827009DF8DF
:1008D000220000F0030084F828009DF8230040085F
:1008E00084F82900012084F82A0094F84E00042896
:1008F00008D19DF81C00000220619DF81D102069A0
:1009000008442061208AC00460644FF40070A06431
:100910009DF8040084F82C009DF805000102E18593
:10092000E08D9DF806100843E0859DF8070001065C
:1009300021639DF80810206B40EA014121639DF876
:100940000910206B40EA012121639DF80A10206BF9
:10095000084320639DF80B10342001559DF80C10BE
:10096000352001559DF80D000106A1639DF80E107C
:10097000A06B40EA0141A1639DF80F10A06B40EA13
:100980000121A1639DF81010A06B0843A0633C20D7
:10099000005D9DF8111040EA11113C2001559DF8B1
:1009A00011000007010DE187E08F9DF81210084348
:1009B000E0879DF8130041084020015501214120A6
:1009C00001550020A4E600007CB5002000900190B5
:1009D000002504E0FF2000F093FC681C85B2B5F50B
:1009E000487FF7DB4FF400619D48FFF780FE00254C
:1009F0000BE095220021084600F006FCC4B2012C51
:100A000001D1002505E0681C85B240F6FF708542E3
:100A1000EFDB00BF40F6FF70854204D191A0FFF7E5
:100A20002FFC01207CBD87224FF4D571082000F0F7
:100A30002DFCC4B2052C76D10120944981F84E00DA
:100A4000C1028748FFF755FEFF2000F059FC002542
:100A500018E000221146372000F0D6FBC4B2012C6A
:100A600005D021468AA0FFF70BFC2046DAE70022DA
:100A70001146292000F0C8FBC4B20CB9002505E0DE
:100A8000681C85B240F6FF708542E2DB00BF40F68D
:100A9000FF70854223D100250AE000221146012083
:100AA00000F0B2FBC4B20CB9002505E0681C85B2A9
:100AB00040F6FF708542F0DB00BF40F6FF708542D4
:100AC00005D121467FA0FFF7DBFB0220AAE700202B
:100AD0006E4981F84E0087A0FFF7D2FB02E08FA09D
:100AE000FFF7CEFB012000F025FA012200213B2078
:100AF00000F08AFBC4B22CB1214692A0FFF7C0FBE4
:100B000020468FE7FF224FF40071102000F07CFB9D
:100B1000C4B2002C7ED0214600E004E096A0FFF78E
:100B2000AFFB20467EE7012C74D1FF2000F0E8FBEC
:100B3000C0B28DF80000FF2000F0E2FBC0B28DF8DB
:100B40000100FF2000F0DCFBC0B28DF80200FF20A6
:100B500000F0D6FBC0B28DF80300E1024048FFF779
:100B6000C8FDFF2000F0CCFB9DF80200012874D1E5
:100B70009DF80300AA2870D1002519E00022114633
:100B8000372000F041FBC4B2012C05D0214640A023
:100B9000FFF776FB204645E700224FF080412920F1
:100BA00000F032FBC4B20CB9002505E0681C85B228
:100BB00040F6FF708542E1DB00BF40F6FF708542E2
:100BC00005D1214679A0FFF75BFB03202AE700222D
:100BD00011463A2000F05AFBC4B22CB1214680A045
:100BE000FFF74EFB20461DE7FF2000F089FBC0B257
:100BF0008DF80000FF2000F083FBC0B28DF80100EB
:100C0000FF2000F07DFBC0B28DF80200FF2000F055
:100C100077FB00E021E0C0B28DF803004FF40061E3
:100C20000F48FFF766FDFF2000F06AFB9DF800000B
:100C300000F0400038B10420144981F84E0075A03E
:100C4000FFF71EFB06E00220104981F84E007CA051
:100C5000FFF716FB012000F06DF90020E2E600002E
:100C600000040240526573657420636172642069F8
:100C70006E746F2049444C4520737461746520661E
:100C800061696C6564210D0A000000008805002080
:100C900053656E6420434D4435352073686F756C21
:100CA000642072657475726E20307830312C207239
:100CB0006573706F6E73653D3078253032780D0A3C
:100CC0000000000053656E6420434D44312073687A
:100CD0006F756C642072657475726E203078303078
:100CE0002C20726573706F6E73653D3078253032DD
:100CF000780D0A00436172642054797065202020C9
:100D000020202020202020202020202020202020E3
:100D100020203A204D4D430D0A00000043617264CB
:100D200020547970652020202020202020202020A1
:100D3000202020202020202020203A20534420560C
:100D4000310D0A0053656E6420434D4435392073DC
:100D5000686F756C642072657475726E20307830BF
:100D6000302C20726573706F6E73653D307825305E
:100D700032780D0A0000000053656E6420434D4434
:100D800031362073686F756C642072657475726E8D
:100D900020307830302C20726573706F6E73653D33
:100DA0003078253032780D0A0000000053656E64FB
:100DB0002041434D4434312073686F756C64207258
:100DC000657475726E20307830302C2072657370C7
:100DD0006F6E73653D3078253032780D0A00000063
:100DE00053656E6420434D4435382073686F756CCD
:100DF000642072657475726E20307830302C2072E9
:100E00006573706F6E73653D3078253032780D0AEA
:100E10000000000043617264205479706520202036
:100E200020202020202020202020202020202020C2
:100E300020203A20534420563248430D0A00000037
:100E40004361726420547970652020202020202086
:100E500020202020202020202020202020203A2078
:100E600053442056320D0A002DE9F04105460E4646
:100E700017461D4890F84E00042800D06D0200224D
:100E80002946122000F0C0F900F0FF08B8F1000F69
:100E900002D00120BDE8F081002414E006EB4420DC
:100EA00000224FF4007100F06BF958B10022114696
:100EB0000C2000F0A9F94FF400610C48FFF719FC71
:100EC0000220E7E7641CBC42E8D3002211460C2054
:100ED00000F09AF94FF400610448FFF70AFCFF2084
:100EE00000F00EFA0020D5E788050020000402403B
:100EF00070B504460E460E4890F84E00042800D007
:100F0000640200222146112000F07EF9C5B20DB125
:100F1000012070BD01225102304600F031F9C5B206
:100F2000002211460C2000F06FF92846F1E700007E
:100F30008805002010B586B004460020ADF80400F6
:100F40004FF48270ADF806000020ADF808000220D2
:100F5000ADF80A000120ADF80C004002ADF80E001B
:100F60000020ADF812000720ADF814001CB938209D
:100F7000ADF8100002E01020ADF8100001A9024801
:100F800000F0EAF906B010BD003800402DE9F04746
:100F900005460E461746444890F84E00042800D0F7
:100FA0006D02414890F84E0020B1002239461720CA
:100FB00000F02AF900222946192000F025F9C4B2D0
:100FC00014B10120BDE8F0874FF400613748FFF706
:100FD0008EFBFF2000F094F94FF000083CE0FC206D
:100FE00000F08EF94FF0000907E016F8010B00F051
:100FF00087F909F101001FFA80F9B9F5007FF4DBE8
:10100000FF2000F07DF9FF2000F07AF9FF2000F0CA
:1010100077F9C4B204F01F00052806D04FF4006130
:101020002248FFF766FB0220CCE74FF0000A0CE0F5
:1010300050460AF1010AB0F5802F06D14FF4006145
:101040001A48FFF756FB0320BCE7FF2000F058F9D1
:10105000FF28EDD108F10108B845C0D3FD2000F00C
:101060004FF9C4B20CB90420ACE74FF0000A0CE011
:1010700050460AF1010AB0F5802F06D14FF4006105
:101080000A48FFF736FB05209CE7FF2000F038F9FF
:10109000FF28EDD14FF400610448FFF72AFBFF2041
:1010A00000F02EF900208DE78805002000040240A2
:1010B0002DE9F04104460D462F4890F84E000428D3
:1010C00000D0640200222146182000F09DF8C6B22C
:1010D00016B10120BDE8F0814FF400612748FFF709
:1010E00006FBFF2000F00CF9FF2000F009F9FF20BB
:1010F00000F006F9FE2000F003F9002705E015F8DE
:10110000010B00F0FDF8781C87B2B7F5007FF6DB25
:10111000FF2000F0F5F8FF2000F0F2F8FF2000F0CB
:10112000EFF8C6B206F01F00052806D04FF40061A4
:101130001248FFF7DEFA0220CCE74FF000080CE07F
:10114000404608F10108B0F5802F06D14FF4006148
:101150000A48FFF7CEFA0320BCE7FF2000F0D0F8E2
:101160000028EDD04FF400610448FFF7C2FAFF20D9
:1011700000F0C6F80020ADE788050020000402401A
:101180002DE9F04105460E4617464FF400611D4813
:10119000FFF7ADFA00240BE0FF2000F0B1F800F0FB
:1011A000FF08B8F1FE0F01D1002404E0601C84B2F6
:1011B000B4F5FA6FF0DB00BFB4F5FA6F07D14FF466
:1011C00000611048FFF795FA0120BDE8F081002486
:1011D00005E0FF2000F094F82855601C84B2B4426A
:1011E000F7DBFF2000F08CF8FF2000F089F83FB11A
:1011F0004FF400610348FFF77CFAFF2000F080F80D
:101200000020E2E7000402402DE9F04106460C46CA
:101210001746FF2000F074F84FF400611A48FFF7FA
:1012200066FA46F0400000F06BF8200E00F068F817
:10123000C4F3074000F064F8C4F3072000F060F83E
:10124000E0B200F05DF8384600F05AF84FF00008C0
:101250000AE0FF2000F054F8C5B2FF2D00D006E0F0
:1012600008F1010000F0FF08B8F1C80FF1DB00BF82
:101270004FF400610448FFF73CFAFF2000F040F80B
:101280002846BDE8F0810000000402402DE9F0414D
:1012900006460C461746FF2000F032F84FF4006176
:1012A0001648FFF724FA46F0400000F029F8200E17
:1012B00000F026F8C4F3074000F022F8C4F307203A
:1012C00000F01EF8E0B200F01BF8384600F018F805
:1012D0004FF000080AE0FF2000F012F8C5B2FF2D21
:1012E00000D006E008F1010000F0FF08B8F1C80FD7
:1012F000F1DB00BF2846BDE8F08100000004024099
:1013000010B5044600BF0221094800F017F8002874
:10131000F9D02146064800F01DF800BF012104481D
:1013200000F00CF80028F9D0014800F010F810BDCA
:101330000038004000BFFEE77047704702460020BB
:1013400013890B400BB1012000E0002070470146DB
:10135000888970478181704710B50022028802F4A5
:1013600041520B884C8823438C882343CC882343E9
:101370000C8923434C8923438C892343CC89234301
:101380001A430280838B4FF2FF74234083830B8ABE
:10139000038210BD704700000CB500200190009042
:1013A0003448006840F480303249086000BF31485A
:1013B000006800F4003000900198401C01900098F3
:1013C00018B90198B0F5A04FF1D12A48006800F48F
:1013D000003010B10120009001E000200090009842
:1013E000012846D123484030006840F08050214910
:1013F000403108602048006840F440401E490860C1
:101400001C48083000681B4908310860084600681D
:1014100040F4004008600846006840F4A0500860AE
:101420001648091F0860081F006840F08070091FF7
:10143000086000BF0F48006800F000700028F9D075
:1014400040F205700E4908600A480830006820F034
:1014500003000849083108600846006840F00200AF
:10146000086000BF03480830006800F00C0008283E
:10147000F8D10CBD0038024000700040085440070D
:10148000003C02407047000010B51548006840F469
:101490007000134908601348006840F001001149CA
:1014A000086000200F49083108600E4800680E49A6
:1014B00008400C4908600D48091D0860081F0068B5
:1014C00020F48020091F0860002006490C310860C4
:1014D000FFF762FF4FF0006001498039086010BDDE
:1014E00088ED00E000380240FFFFF6FE10300024D7
:1014F00010B540F225511D4800F03EF810B31B48CE
:1015000000F064F8C4B21A48008800F40040C8B97A
:101510001748008800F4804060B10A2C03D00020F6
:101520001349088020E01248008840F40040104928
:10153000088019E00D2C06D10D48008840F4804049
:101540000B49088010E00A480088C0F30D000949E3
:101550000C5407480088401C05490880084600884C
:10156000C72801DD0020088010BD000000100140E8
:1015700014000020E005002070B50246002400237E
:101580000025002040F66A16B14200D100BFC1F329
:10159000421501F01F03012606FA03F3012D02D1C3
:1015A0009689334006E0022D02D1168A334001E0CD
:1015B000968A33400C12012606FA04F41688344049
:1015C00013B10CB1012000E0002070BD01468888F5
:1015D000C0F30800704700BFFEE730380A2801D288
:1015E000012070470020704700BF704770B5044667
:1015F0000D46607801232A4604F1300100F0C2FC58
:1016000008B1032070BD94F82E1294F82F0241EA1D
:1016100000204AF65521884201D00220F2E794F8D2
:101620006900010694F8680041EA004194F86700F7
:1016300041EA002094F86610084320F07F400E49EC
:10164000884201D10020DDE794F88500010694F876
:10165000840041EA004194F8830041EA002094F8B4
:101660008210084320F07F400349884201D10020C6
:10167000C8E70120C6E7000046415400024600E0EA
:10168000521C107810B110788842F9D11078704748
:101690002DE9F74F88B0089800680190019800780C
:1016A00030380790079809280AD8019840783A28D6
:1016B00006D10198801C019008990198086001E00A
:1016C00000200790079818B10B200BB0BDE8F08FF1
:1016D000D049079851F82040099804600CB90C20B3
:1016E000F3E7207878B1607800F079FC804608F064
:1016F000010040B90A9820B108F0040008B10A209E
:10170000E3E70020E1E70020207007986070607830
:1017100000F0C9FB804608F0010008B10320D4E7BF
:101720000A9820B108F0040008B10A20CDE74FF074
:10173000000B59462046FFF759FF054600BF012D13
:1017400021D14FF0000ABAF1000F03D0AAF1010035
:1017500000F0FF0A4FF4DF7000EB0A1104F13000D3
:101760000F18387978B1F87A0106B87A41EA004161
:10177000787A41EA0020397A40EA010B594620463E
:10178000FFF734FF0546032D01D101209DE70DB180
:101790000D209AE73B20015D94F83C0041EA0020CF
:1017A000B0F5007F01D00D208FE74620015D94F851
:1017B000470041EA0029B9F1000F0ED194F8570013
:1017C000010694F8560041EA004194F8550041EAB8
:1017D000002094F8541040EA0109C4F81C904020FD
:1017E000065DE670012E03D0022E01D00D206CE7BD
:1017F00009FB06F93D20005D0646A07016B1701E7B
:10180000304008B10D2060E74120015D94F84200AE
:1018100041EA00202081207A00F00F0008B10D205D
:1018200053E74320015D94F8440041EA002006900C
:10183000069870B994F85300010694F8520041EAF2
:10184000004194F8510041EA002094F850100843F8
:1018500006903E20015D94F83F0041EA002002908E
:10186000029808B90D2030E702984844218900EB1E
:1018700011100590DDE90501814201D20D2024E718
:10188000DDE90510401AA178B0FBF1F0049004984E
:1018900008B90D2019E7012540F6F6710498884231
:1018A00000D302254FF6F6710498884200D3032531
:1018B0000498801CA06105985844A062029858447E
:1018C0002062032D16D1208908B10D20FDE694F881
:1018D0005F00010694F85E0041EA004194F85D0063
:1018E00041EA002094F85C1008436062A06980001F
:1018F000039014E0208908B90D20E6E6206A4844E8
:101900006062022D02D1A069400007E0207E00F055
:101910000100A16901EB410100EB51000390E16975
:10192000039800F2FF10B1EB502F01D20D20CCE64E
:101930004FF0FF3020610020E060032D5CD160712A
:1019400094F8601094F8610041EA00205844606106
:101950006078012304F13001626900F013FBE8BBF9
:1019600094F82E1294F82F0241EA00204AF65521ED
:10197000884241D13320005D01063220005D41EAFA
:1019800000413120005D41EA002094F83010084306
:101990002149884230D194F81702010694F81602C2
:1019A00041EA004194F8150241EA002094F814122B
:1019B00008431A4988421FD194F81F02010694F87F
:1019C0001E0241EA004194F81D0241EA002094F809
:1019D0001C120843E06094F81B0200E00CE00106D2
:1019E00094F81A0241EA004194F8190241EA0020F1
:1019F00094F8181208432061257009480088401C9B
:101A000080B207490880E0800020E062207100BFBA
:101A10005BE6000008000020525261417272416191
:101A20000C0000200246891E9069801E884201D861
:101A3000002070479378906A01FB0300F9E72DE9D5
:101A4000F04704468946B9F1000F06D1E76817B19F
:101A5000A069B84211D801270FE04946204600F09E
:101A600079FF0646022E02D20120BDE8F087A06968
:101A7000B04201D93046F8E74F463D4600BF6D1CE5
:101A8000A069A84204D80225BD4201D90020ECE794
:101A90002946204600F05EFF064606B909E0701CA4
:101AA00008B1012E01D13046DFE7BD42E7D1002069
:101AB000DBE700BF6FF070422946204601F0E1F8F5
:101AC0008046B8F1000F08D1B9F1000F05D02A46C1
:101AD0004946204601F0D5F88046B8F1000F09D1FB
:101AE000E5602069401C68B12069401E206101202A
:101AF000607107E0B8F1010F02D14FF0FF3000E054
:101B0000012005462846B0E72DE9F35F8A46DAF85A
:101B1000007000E07F1C38782F28FBD038785C28D4
:101B2000F8D0009886690B222021304601F066F833
:101B30000025A946AB464FF0080800BF58460BF1F8
:101B4000010B3C5C202C03DD2F2C01D05C2C00D140
:101B500036E02E2C01D0C1450ED3B8F1080F01D1CB
:101B60002E2C02D00620BDE8FC9F4FF008094FF054
:101B70000B08A806050EE1E7802C05DB45F0030500
:101B8000A4F1800023490C5C214623A0FFF776FDD9
:101B900008B10620E7E7412C04DB5A2C02DC45F0B3
:101BA000020508E0612C06DB7A2C04DC45F0010517
:101BB000A4F12000C4B2484609F101093454BDE73C
:101BC00000BF07EB0B00CAF80000202C01DC04204A
:101BD00000E000200446B9F1000F01D10620C2E761
:101BE0003078E52801D105203070B8F1080F01D117
:101BF000A806050E05F00300012801D144F01004E9
:101C000005F00C00042801D144F00804F47200200F
:101C1000A9E700001E2F0008222A2B2C3A3B3C3D4E
:101C20003E3F5B5D7C7F00002DE9F04104460021D2
:101C3000204600F0EAF8054615B12846BDE8F081D7
:101C400000BF2169206800F0E3FF054605B116E0FA
:101C5000666937780FB9042511E0F07A00F00800C2
:101C600030B90B223046A16900F0A8FF00B906E0A8
:101C70000021204600F006F80546002DE1D000BF07
:101C80002846DBE72DE9F0410446884600BFE0889E
:101C9000401C86B20EB1206910B90420BDE8F08165
:101CA00006F00F0000286FD12069401C2061E06819
:101CB00028B920680089B04266DC0420EEE720687D
:101CC0008078401E00EA161000285DD1E168206887
:101CD00000F040FE0546012D01D80220DEE7681C19
:101CE00008B90120DAE720688069A84246D8B8F12F
:101CF000000F01D10420D1E7E1682068FFF79FFEC3
:101D000005460DB90720C9E7012D01D10220C5E71D
:101D1000681C08B90120C1E70021206800F078FFA5
:101D200008B10120BAE7216801F130004FF40072D8
:101D3000002100F063FF29462068FFF773FE216849
:101D4000C862002710E00120216808710021206886
:101D500000F05EFF08B10120A0E72068C06A401CC7
:101D60002168C862781CC7B220688078B842EADC73
:101D70002068C06AC01B2168C86200BFE5602946B0
:101D80002068FFF74FFE2061E6802068303006F0C3
:101D90000F0100EB4110606100207FE72DE9F04169
:101DA00004460021204600F030F80546ADB900BFDA
:101DB0002169206800F02CFF054605B10CE0606940
:101DC0000678E52E00D006B906E001212046FFF78F
:101DD00059FF0546002DEBD000BF9DB92169206851
:101DE00000F016FF05466DB96769202200213846CC
:101DF00000F004FF0B223846A16900F0F2FE01203A
:101E0000216808712846BDE8F0812DE9F0410446BB
:101E10000E46E680A568012D03D020688069A8429F
:101E200002D80220BDE8F0812DB92068007803288F
:101E300001D12068456A65B9E56020680089B04233
:101E400001DC0220EEE72068406A00EB16102061FA
:101E500020E020688078070112E02946206800F021
:101E600079FD0546681C08B90120DBE7022D03D384
:101E700020688069A84201D80220D3E7F01B86B20F
:101E8000BE42EADAE56029462068FFF7CBFD00EBA9
:101E9000161020612068303006F00F0100EB411071
:101EA00060610020BEE770B5054635B1012D0CD04C
:101EB000022D0CD0032D0ED10BE0FEF785FD04465C
:101EC0000CB9002070BD0120FCE70020FAE70020DB
:101ED000F8E70020F6E70120F4E7000070B50546BA
:101EE0000C46164645BB2648FEF707FC0F2C22D2AF
:101EF000DFE804F0080A211321191A1B21211C1DF7
:101F00001E1F2000002070BD1D48406C1C49896CBC
:101F1000B0FBF1F030600020F5E71948B0F8480058
:101F200030800020EFE706E005E004E003E002E097
:101F300001E000E000BF20E0012D1CD10F2C19D2E0
:101F4000DFE804F0080A0C0E181011121818131408
:101F5000151617000020D6E70020D4E70020D2E7AE
:101F60000020D0E706E005E004E003E002E001E045
:101F700000E000BF01E00420C5E70420C3E7000043
:101F8000880500202DE9F0410646884617461C4684
:101F900014B90420BDE8F08116B1012E1DD116E060
:101FA000012C09D141463846FEF7A2FF05460DB97E
:101FB0000020EFE70120EDE7224641463846FEF7D4
:101FC00053FF05460DB90020E4E70120E2E7012CAC
:101FD00001D10020DEE70020DCE70120DAE701463E
:101FE00021B1012904D0022906D103E00020704765
:101FF0000020FCE70020FAE70120F8E72DE9F04196
:102000000646884617461C4614B90420BDE8F081F0
:1020100016B1012E1DD116E0012C09D141463846DA
:10202000FFF746F805460DB90020EFE70120EDE780
:10203000224641463846FEF7A9FF05460DB9002065
:10204000E4E70120E2E7012C01D10020DEE70020D7
:10205000DCE70120DAE770B50446204600F0B9FA63
:1020600005460DB900202060284670BD2DE9F047D7
:1020700004460E46A188206800F037FF8246BAF178
:10208000000F02D05046BDE8F087A07900F0800034
:1020900008B10220F7E7E068B04204D2A07900F06E
:1020A000020000B9E668D4F808904FF00008C4F8C0
:1020B0000880002E77D0206880784702B9F1000FA1
:1020C00011D0701EB0FBF7F1A9F10100B0FBF7F0E1
:1020D000814208D3A9F10100791E8843A060A0685D
:1020E000361A656918E02569ADB900212068FFF747
:1020F000A6FC0546012D05D1A07940F08000A07115
:102100000220C0E7681C28B9A07940F08000A071C7
:102110000120B8E725616561002D44D029E0A07950
:1021200000F0020038B129462068FFF788FC054618
:1021300035B93E461FE02946206800F00BFC0546F5
:10214000681C28B9A07940F08000A07101209AE7AE
:10215000012D03D920688069A84205D8A07940F0F4
:102160008000A07102208EE76561A0683844A060FD
:10217000F61BBE42D3D800BFA0683044A060C6F3AF
:10218000080068B129462068FFF74CFC8046B8F18A
:10219000000F06D1A07940F08000A071022072E704
:1021A00001E008EB56282089C0F3080050B3A0696D
:1021B000404527D0A07900F0400090B121684878D0
:1021C000012304F12401A269FFF718FF28B1A079C7
:1021D00040F08000A071012055E7A07920F0400078
:1021E000A071216848780123424604F12401FFF7D9
:1021F000C9FE28B1A07940F08000A071012042E71B
:10220000C4F81880D4E90201884205D9A068E060CA
:10221000A07940F02000A071504634E70246012A20
:1022200001DB0B207047074850F822300BB100202B
:10223000187009B100200870024840F822100020F0
:10224000F0E70000080000202DE9F7438AB00546BA
:1022500016460020286006F01F0626F0010203A99A
:102260000BA8FFF715FA0746CDF824D027B903A825
:102270000B9900F011FB0746089C0FB904B906271B
:1022800006F01C00002858D04FB1042F03D103A83A
:10229000FFF784FD074646F00806089C09E0E07A4F
:1022A00000F0110008B1072703E006F0040000B1B8
:1022B0000827002F40D106F0080000283CD000F08D
:1022C000BBFB804684F80E804FEA1821E1734FEA89
:1022D000184121744FEA186161740020E072207780
:1022E00000216177A177E177A17EE07E41EA0021BC
:1022F000227D607D42EA002041EA00490020A0766C
:102300000021E17620756175012003990871B9F10A
:10231000000F11D00398D0F82C804946039800F0A4
:102320004BFD074647B9A9F101000399C860414632
:10233000039800F06DFC07460EE06FB9E07A00F0FC
:10234000100008B1042707E006F0020020B1E07A8F
:1023500000F0010000B1072747B906F0080008B1F6
:1023600046F020060398C06AE8612C62F7B9AE71A6
:10237000A17EE07E41EA0021227D607D42EA0020CC
:1023800041EA00402861E07F0106A07F41EA004168
:10239000607F41EA0020217F0843E8600020A860B8
:1023A000A861039828600398C088A88038460DB0BB
:1023B000BDE8F0837CB504460D468DF8004001264B
:1023C00001AB32466946284600F05FF90198B042F9
:1023D00000D17CBD4FF0FF30FBE770B504460E46E0
:1023E00000250AE020783146FFF7E4FF401C10B9D1
:1023F0004FF0FF3070BD641C6D1C20780028F1D1B7
:102400002846F7E72DE9FF4F83B0044615469A4664
:10241000DDF810B00020CAF80000A188206800F0A4
:1024200064FD0290029818B1029807B0BDE8F08FE1
:10243000A07900F0800008B10220F6E7A07900F052
:10244000010008B90720F0E7D4E90210401A009013
:102450000098854200D9009DB6E02089C0F30800AD
:1024600000287DD120688078401EA16800EA5120B4
:1024700000F0FF09B9F1000F1DD1A06810B9206963
:10248000019004E06169206800F064FA019001980D
:10249000022805D2A07940F08000A0710220C4E794
:1024A0000198401C28B9A07940F08000A07101205B
:1024B000BBE70198606161692068FFF7B3FA0646DF
:1024C0002EB9A07940F08000A0710220ADE74E4403
:1024D0004FEA5528B8F1000F2DD009EB080021680C
:1024E0008978884203D920688078A0EB090808F031
:1024F000FF032168487832465946FFF743FD28B16B
:10250000A07940F08000A07101208EE7A07900F052
:10251000400068B1A069801B404509D2A169891BB0
:102520000BEB41204FF4007204F1240100F059FB41
:102530004FEA48273EE0A069B04227D0A07900F0DA
:102540004000A0B121684878012304F12401A26968
:10255000FFF754FD38B1A07940F08000A07100E091
:1025600015E0012061E7A07920F04000A07121680A
:1025700048780123324604F12401FFF703FD28B116
:10258000A07940F08000A07101204EE7A66120896B
:10259000C0F30800C0F50077AF4200D92F4620896C
:1025A000C0F3080204F1240011183A46584600F01E
:1025B00018FB00BFBB44A0683844A060DAF80000F4
:1025C0003844CAF80000ED1B002D7FF446AF002010
:1025D0002BE72DE9F0410446A188206800F085FC36
:1025E0000746002F4FD1A07900F0200000284AD0E4
:1025F000A07900F0400078B121684878012304F107
:102600002401A269FFF7FAFC10B10120BDE8F081B6
:10261000A07920F04000A071E169206800F0F8FA8C
:102620000746002F2FD1256AE87A40F02000E87293
:10263000207B2877A089010A6977E068010CA977D7
:10264000E068010EE977207CA876208A010AE97605
:102650002069000C28752069010E697500F0ECF9FD
:102660000646AE75310AE975310C2976310E697668
:10267000A07920F02000A071012021680871206855
:1026800000F0CEFB07463846C0E72DE9FF4F83B088
:10269000044615469B46049801900020CBF80000A4
:1026A000A188206800F021FC0290029818B10298DD
:1026B00007B0BDE8F08FA07900F0800008B10220DB
:1026C000F6E7A07900F0020008B90720F0E7E0681B
:1026D0002844E168884200D20025CDE02089C0F37B
:1026E0000800002877D120688078401EA16800EAA1
:1026F000512000F0FF0ABAF1000F2AD1A06858B9A2
:10270000D4F81080B8F1000F0BD100212068FFF73A
:1027100096F98046206104E061692068FFF78FF92F
:102720008046B8F1000F00D1A9E0B8F1010F05D142
:10273000A07940F08000A0710220B9E708F1010003
:1027400028B9A07940F08000A0710120B0E7C4F85A
:102750001480A07900F0400090B1216848780123EE
:1027600004F12401A269FFF749FC28B1A07940F0E7
:102770008000A07101209BE7A07920F04000A071AB
:1027800061692068FFF74EF906462EB9A07940F03E
:102790008000A07102208BE756444FEA5529B9F119
:1027A000000F2FD00AEB090021688978884203D9ED
:1027B00020688078A0EB0A0909F0FF0321684878B7
:1027C00032460199FFF71AFC30B1A07940F0800041
:1027D000A07101206CE72CE0A069801B48450ED257
:1027E000A069801B019A02EB40214FF4007204F1B2
:1027F000240000F0F6F9A07920F04000A0714FEA23
:1028000049272DE0A069B04212D0D4E902018842E4
:102810000ED2216848780123324604F12401FFF7E3
:10282000B1FB28B1A07940F08000A07101203FE702
:10283000A6612089C0F30800C0F50077AF4200D937
:102840002F462189C1F3080204F1240150183A46A9
:10285000019900F0C6F9A07940F04000A07100BFD6
:10286000019838440190A0683844A060DBF800006B
:102870003844CBF80000ED1B002D7FF42FAF00BFD4
:10288000D4E90201884201D9A068E060A07940F053
:102890002000A07100200BE72DE9F34104460198C8
:1028A00000782F2803D0019800785C2802D1019885
:1028B000401C01900020A06001980078202807D2D9
:1028C00000212046FFF7A1FA0646002060612FE0B4
:1028D00000BF01A92046FFF717F9064606B126E01A
:1028E0002046FFF7A1F90646A069C77A46B1042E33
:1028F00000D01CE000BF07F0040000B9052616E078
:1029000007F0040000B112E06569E87A00F01000F9
:1029100008B905260BE0A97EE87E41EA00212A7D60
:10292000687D42EA002041EA0040A060D1E700BF94
:102930003046BDE8FC81000000BF054A128802F065
:102940004002002AF9D0C2B2014B9A8070470000C1
:10295000001001402DE9F04105460C46022C02D33F
:10296000A869A04202D80120BDE8F081287801289A
:1029700004D002282CD003285AD13DE0274607EB8B
:102980005707286A00EB5721284600F041F900B1AB
:102990004EE0C7F3080105F1300010F801807F1CFC
:1029A000286A00EB5721284600F032F900B13FE0D9
:1029B000C7F3080105F13000405C48EA002804F044
:1029C000010010B14FEA1810CEE7C8F30B00CBE7B7
:1029D000286A00EB1421284600F01AF900B127E01C
:1029E00040F2FF1000EA440105F130000E18307883
:1029F000717840EA0120B7E7286A00EBD411284635
:102A000000F006F900B113E040F2FF1000EA840183
:102A100005F130000E18F0780006B17840EA014068
:102A2000717840EA01203178084320F070409BE73C
:102A300000BF4FF0FF3097E70020704710B53249D4
:102A40000020FFF7EBFB31490870132230A1344816
:102A5000FFF7FAFB2D4908700846007818B131A03D
:102A6000FDF70EFC02E034A0FDF70AFC2C48C1681B
:102A7000FFF7FCFA25490870294934A0FFF7ADFC9F
:102A8000354908600846006818B934A0FDF7F8FB1E
:102A900002E037A0FDF7F4FB02212148FFF7E6FA38
:102AA0001A4908701E4937A0FFF797FC2A490860A9
:102AB0000846006818B929A0FDF7E2FB02E02CA047
:102AC000FDF7DEFB1648C068234908600846016828
:102AD0002DA0FDF7D5FB12481F4B2F49C268FFF709
:102AE00091FC0A4908700846007820B92A492BA0B1
:102AF000FDF7C6FB02E02CA0FDF7C2FB0848FFF77C
:102B0000AAFA002010BD00001800002000000020DC
:102B1000303A2F72616F71696E31312E74787400A2
:102B200064020020665F6F70656E28292066616907
:102B30006C200D0A00000000665F6F70656E28292A
:102B40002073756363657373200D0A00313233346B
:102B5000353637383930000004000020665F707564
:102B600074732829206661696C200D0A000000003A
:102B7000665F70757473282920737563636573735A
:102B8000200D0A002D2D000066696C652073697A9E
:102B9000653A25640D0A0000A0040020746578746D
:102BA0003A25730D0A00000020665F726561642893
:102BB00029206661696C200D0A000000F0B503460B
:102BC0001C460D46002000BF161EA2F1010207D0D0
:102BD00014F8017B15F801CBA7EB0C06301EF3D0DF
:102BE000F0BD70B503460C4603E014F8015B03F832
:102BF000015B151EA2F10102F7D170BD30B503468D
:102C000001E003F8011B141EA2F10102F9D130BD4D
:102C10002DE9F04104460D46E66AAE422FD02079F8
:102C200008B360780123324604F13001FFF7E6F97A
:102C300010B10120BDE8F08100202071D4E9071017
:102C40000844B0420FD9E7780AE0E06906446078AA
:102C50000123324604F13001FFF7D0F9781EC7B2E4
:102C6000012FF2DC00BF55B1607801232A4604F140
:102C70003001FFF787F908B10120DBE7E5620020AA
:102C8000D8E72DE9F04705460E461746022E02D337
:102C9000A869B04202D84FF002088AE028780128DB
:102CA00004D0022841D003287DD154E0B14609EB7D
:102CB0005909286A00EB59212846FFF7A9FF8046E9
:102CC000B8F1000F00D071E0C9F3080105F1300040
:102CD0000C1806F0010020B1F9B2207861F31F1042
:102CE00000E03846207009F1010901202871286AA6
:102CF00000EB59212846FFF78BFF8046B8F1000F03
:102D000000D053E0C9F3080105F130000C1806F0BB
:102D1000010010B1C7F3071005E0207800F0F000C3
:102D2000C7F303210843207040E0286A00EB162116
:102D30002846FFF76DFF8046B8F1000F00D035E060
:102D400040F2FF1000EA460105F130000C18277030
:102D5000380A60702AE0286A00EBD6112846FFF78F
:102D600057FF8046B8F1000F00D01FE040F2FF107F
:102D700000EA860105F130000C18E0780006A17821
:102D800040EA0140617840EA01202178084300F0E0
:102D9000704007432770380A6070380CA070380EF6
:102DA000E07003E0FFE74FF0020800BF00BF012022
:102DB00028714046BDE8F0872DE9F04104460E46F3
:102DC000022E02D3A069B04201D8022725E00027D5
:102DD0001FE031462046FFF7BDFD054605B91BE063
:102DE000012D01D1022717E0681C08B9012713E063
:102DF000002231462046FFF744FF074607B10BE0AB
:102E00002069401C20B12069401C206101206071B4
:102E10002E46A069B042DCD800BF3846BDE8F0813C
:102E200070B5044600212046FFF7F2FE0546002D4E
:102E300059D1207803284FD1607900284CD0002048
:102E4000E0624FF40072002104F13000FFF7D6FE7B
:102E5000552184F82E12AA2184F82F12522084F8CA
:102E6000300052213120015561213220015541218C
:102E700033200155722184F8141284F8151241216F
:102E800084F81612612184F81712217C84F8181234
:102E9000208A010A84F819122069010C84F81A1298
:102EA0002069010E84F81B12217B84F81C12A08972
:102EB000010A84F81D12E068010C84F81E12E06813
:102EC000010E84F81F126078012304F13001626959
:102ED000FFF794F800206071607800221146FEF739
:102EE000FDFF00B10125284670BD70B504460D46B2
:102EF00024B1207810B1E088A84201D0092070BD2B
:102F00006078FFF76CF800F0010008B10320F6E7E5
:102F10000020F4E74FF04070E1EE100A7047809A0D
:102F200090418E418F804545454949498E8F909209
:102F3000924F994F555559999A9B9C9D9E9F4149F7
:102F40004F55A5A5A6A7A8A9AAABAC21AEAFB0B115
:102F5000B2B3B4B5B6B7B8B9BABBBCBDBEBFC0C1D9
:102F6000C2C3C4C5C6C7C8C9CACBCCCDCECFD0D1C9
:102F7000D2D3D4D5D6D7D8D9DADBDCDDDEDFE0E1B9
:102F8000E2E3E4E5E6E7E8E9EAEBECEDEEEFF0F1A9
:102F9000F2F3F4F5F6F7F8F9FAFBFCFDFEFF303139
:102FA0003233343536373839414243444546403070
:102FB0005800303132333435363738396162636422
:102FC0006566403078000400000800000000000042
:102FD0000002000100001000F82F0008000000208F
:102FE00018000000C401000810300008180000207C
:102FF000F00C0000E00100080000000000000000EC
:1030000000000000000000000000000000000000C0
:040000050800018965
:00000001FF
