:020000040800F2
:10000000301B00209D0100082D0500082505000873
:1000100029050008F5010008C918000800000000C3
:100020000000000000000000000000005916000859
:100030004D04000800000000450500087117000885
:10004000B7010008B7010008B7010008B7010008B0
:10005000B7010008B7010008B7010008B7010008A0
:10006000B7010008B7010008B7010008B701000890
:10007000B7010008B7010008B7010008B701000880
:10008000B7010008B7010008B7010008B701000870
:10009000B7010008B7010008B7010008B701000860
:1000A000B7010008B7010008B7010008B701000850
:1000B000B7010008B7010008B7010008B701000840
:1000C000B7010008B7010008B7010008B701000830
:1000D000B7010008B7010008B7010008B701000820
:1000E000B7010008B7010008B7010008B701000810
:1000F000B7010008B7010008B7010008B701000800
:10010000B7010008B7010008B7010008B7010008EF
:10011000B7010008B7010008B7010008B7010008DF
:10012000B7010008B7010008B7010008B7010008CF
:10013000B7010008B7010008B7010008B7010008BF
:10014000B7010008B7010008B7010008B7010008AF
:10015000B7010008B7010008B7010008B70100089F
:10016000B7010008B7010008B7010008B70100088F
:10017000B7010008B7010008B7010008B70100087F
:10018000B7010008B7010008DFF80CD000F020F834
:10019000004800472B340008301B002006488047E9
:1001A00006480047FEE7FEE7FEE7FEE7FEE7FEE75C
:1001B000FEE7FEE7FEE7FEE7751700088901000885
:1001C000421C10F8011B0029FBD1801A7047000067
:1001D000064C074D06E0E06840F0010394E8070094
:1001E00098471034AC42F6D3FFF7D2FF60410008C5
:1001F0008041000800BFFEE70246094B9A4201D247
:10020000084801E00648103801F000531BB1064BC6
:100210000B40C36002E0044B0B408360704700005A
:1002200010640240006002407D0F7D0F21B1026822
:1002300042F00102026003E0026822F00102026063
:1002400070470000016821F0010101600021016098
:1002500041608160C1600161212141614A49884258
:1002600004D13D21484A103A91608CE0464918314A
:10027000884205D14FF47461434A103A916082E09C
:1002800041493031884205D14FF474113E4A103A49
:10029000916078E03C494831884205D14FF0746163
:1002A000394A103A91606EE037496031884204D192
:1002B0003649354A103AD16065E033497831884291
:1002C00004D13349304A103AD1605CE02E49903174
:1002D000884204D12F492C4A103AD16053E02A4970
:1002E000A831884205D14FF03D51274A103AD160DC
:1002F00049E02949884204D13D21274A083A116042
:1003000041E025491831884205D14FF47461224AF1
:10031000083A116037E020493031884205D14FF466
:1003200074111D4A083A11602DE01B49483188427A
:1003300005D14FF07461184A083A116023E016495C
:100340006031884204D11149134A121F11601AE02A
:1003500011497831884204D10D490F4A121F1160AA
:1003600011E00D499031884204D10A490A4A121F0E
:10037000116008E00849A831884204D14FF03D518E
:10038000054A121F11607047106002403D000020B6
:10039000400F002000003D20106402400146002074
:1003A0000A6802F001020AB1012000E00020704753
:1003B00030B503460A46002000240B4DAB4201D263
:1003C0000A4901E00849103902F000550DB14C68A6
:1003D00000E00C68064D2C4004EA02050DB1012036
:1003E00000E0002030BD00001064024000600240C8
:1003F0007D0F7D0F10B500220268134B1A40CC68A8
:100400000B6823434C6923438C692343CC69234302
:100410000C6A23434C6A23438C6A23434C6B23436B
:100420008C6B23431A430260426922F00702D1E930
:100430000B3423431A4342610B6943604B6883606A
:100440008B68C36010BD00003F801CF07047F0B5A2
:100450000A4600210023002400BF3DE0012505FAE3
:1004600001F3156805EA03049C4234D105684F0086
:100470000326BE40B543056015794E00B5400668B9
:10048000354305601579012D02D01579022D16D15D
:1004900085684F000326BE40B543856055794E0000
:1004A000B540866835438560456801268E40B54372
:1004B0004560456896798E40B6B235434560C5685B
:1004C0004F000326BE40B543C560D5794E00B54008
:1004D000C6683543C560491C1029BFD3F0BDF0B5CF
:1004E000002300244D07ED0E02FA05F3CE1000F1B3
:1004F000200555F826504E07F70E0F26BE40B5438F
:10050000CF1000F1200646F82750CE1000F120054C
:1005100055F8265045EA0304CE1000F1200545F8B1
:100520002640F0BD00BFFEE700BFFEE770470000B9
:1005300002490143024A1160704700000000FA05B9
:100540000CED00E07047000029B1064A1268024332
:10055000044B1A6004E0034A12688243014B1A609C
:10056000704700003038024029B1064A1268024341
:10057000044B1A6004E0034A12688243014B1A607C
:10058000704700004038024029B1064A1268024311
:10059000044B1A6004E0034A12688243014B1A605C
:1005A0007047000044380240F0B5002100220024CA
:1005B000022500260223324F3F6807F00C0121B1CB
:1005C000042905D0082937D105E02E4F076036E011
:1005D0002D4F076033E02A4F3F1F3F68C7F3805617
:1005E000274F3F1F3F6807F03F036EB1264FB7FB11
:1005F000F3F7DFF88CC0ACF1040CDCF800C0CCF3EE
:10060000881C07FB0CF40CE01E4FB7FBF3F7DFF878
:1006100070C0ACF1040CDCF800C0CCF3881C07FB04
:100620000CF4174F3F1F3F68C7F301477F1C7D0045
:10063000B4FBF5F7076002E0124F076000BF00BF90
:100640000F4F3F6807F0F0010909104F7A5C076807
:10065000D74047600A4F3F6807F4E051890A0B4FC3
:100660007A5C4768D7408760054F3F6807F4604170
:10067000490B064F7A5C4768D740C760F0BD000061
:10068000083802400024F40000127A00060000201E
:1006900010B502E0642001F06BFC00F0F1FA0028D4
:1006A000F8D110BD38B513221EA1214802F04CF933
:1006B000204908701E48C16801F0C0FF1D4908703C
:1006C0001DA11E4801F002F91C48FFF779FD0546FF
:1006D0006B462A461949164802F0ACFA15490870CB
:1006E00017A1164801F0F2F81448FFF769FD84B22B
:1006F0006B46224611490E4802F09CFA0D490870DB
:100700000B4802F047FA0B490870094801F080FFD6
:1007100008490870012216A1002002F0E7F80549F7
:10072000087038BD746573742E62696E0000000035
:10073000AC040020010000200D0A0000DC060020AF
:1007400053544D33322D63702049742075736564A2
:1007500020746F2074657374204661744673204161
:1007600070706C69636174696F6E730D0A000000CC
:10077000303A000010B5012002490860FF2000F067
:10078000F5FD10BDB082404210B500BF012207A1A7
:10079000074802F0ABF807490870322001F0E8FB87
:1007A000044800780028F1D110BD000000000000CE
:1007B00078020020010000207FB504460025FF26B6
:1007C00000203D490860FF2200210A2000F03FFB85
:1007D000002000F00EFA98B9FE2000F00AFA40B9A5
:1007E00000BF04E000F0BDFD0DF805006D1C102DEC
:1007F000F8D3FF2000F0BAFDFF2000F0B7FD00267F
:1008000001202D490860FF2000F0B0FD9DF8000098
:1008100020709DF801000002608060889DF8021041
:10082000084360809DF803000006606060689DF8E2
:10083000041040EA0140606060689DF8051040EADD
:100840000120606060689DF80610084360609DF8B4
:10085000070020729DF8080060729DF809000006EC
:10086000E060E0689DF80A1040EA0140E060E0685E
:100870009DF80B1040EA0120E060E0689DF80C1044
:100880000843E060207C9DF80D1040EA11102074B0
:100890009DF80D000007000D6082608A9DF80E1023
:1008A000084360829DF80F004008207501206075A4
:1008B000304604B070BD0000B08240427FB50446AF
:1008C0000025FF26002083490860FF22002109201F
:1008D00000F0BDFA002000F08CF998B9FE2000F07D
:1008E00088F940B900BF04E000F03BFD0DF80500B9
:1008F0006D1C102DF8D3FF2000F038FDFF2000F014
:1009000035FD0026012073490860FF2000F02EFD10
:100910009DF80000800920709DF80000C0F383005E
:1009200060709DF8000000F00300A0709DF80100C9
:10093000E0709DF8020020719DF8030060719DF841
:1009400004000001E080E0889DF8051040EA1110E5
:10095000E0809DF8050000F00F0020729DF8060071
:10096000C00960729DF80600C0F38010A0729DF867
:100970000600C0F34010E0729DF80600C0F30010BE
:100980002073002060739DF806008007000D206131
:1009900020699DF8071040EA8100206120699DF8D8
:1009A000081040EA911020619DF80800C0F3C200D1
:1009B00020759DF8080000F0070060759DF809009B
:1009C0004009A0759DF80900C0F38200E0759DF80C
:1009D00009008007400F2076207E9DF80A1040EA2B
:1009E000D11020769DF80A00C0F3801060769DF843
:1009F0000A008006400EA076A07E9DF80B1040EA0B
:100A0000D110A0769DF80B0000F07F00E0769DF8F5
:100A10000C00C00920779DF80C00C0F341106077EE
:100A20009DF80C00C0F38200A0779DF80C008007B1
:100A3000000FE077E07F9DF80D1040EA9110E0771D
:100A40009DF80D00C0F3401084F82000002084F8C9
:100A500021009DF80D0000F0010084F822009DF8AF
:100A60000E00C00984F823009DF80E00C0F380102A
:100A700084F824009DF80E00C0F3401084F825008F
:100A80009DF80E00C0F3001084F826009DF80E00BB
:100A9000C0F3810084F827009DF80E0000F00300E9
:100AA00084F828009DF80F00400884F829000120F0
:100AB00084F82A002078012809D19DF808004FF415
:100AC0007F4101EA00209DF809100843206130466B
:100AD00004B070BDB08240422DE9F0410446FF26CB
:100AE00094F854502046FFF7E9FE064604F12C0026
:100AF000FFF762FE0646062D18D120690021401C32
:100B000049414FF400730027A0FB032C01FB03C1F4
:100B100000FB07105B00A2FB031C00FB03C002FBF1
:100B20000700C4E912105810206528E0042D01D0F8
:100B3000022D24D12069401C0021C4E91201207E2D
:100B4000D4E91223801C012101FA00F0C717A2FB8F
:100B5000001C03FB00C002FB0700C4E91210217A4D
:100B60000120884020650027D4E91232206DA3FBC4
:100B7000001C02FB00C003FB0700C4E91210304652
:100B8000BDE8F08170B5002518E000F0EAFB0446EE
:100B900004F01F04052C04D00B2C04D00D2C06D11E
:100BA00003E0052605E00B2070BD0D20FCE7FF26C5
:100BB00000BF00BF052E00D102E06D1C402DE4D91E
:100BC00000BF00BF00F0CDFB0028FBD02046EBE7C4
:100BD00070B5FF2440F6FF7500BF00F0C2FB04466D
:100BE00004F0800018B1281EA5F10105F5D12046BA
:100BF00070BD70B5054640F6FF7400E0641E00F05D
:100C0000B0FBA84201D0002CF8D10CB9FF2070BD78
:100C10000020FCE710B50524002017490860952244
:100C20000021084600F013F913E001201249086082
:100C3000FF2000F09BFB142001F09AF900200F49DF
:100C4000C1F8B00295220021084600F000F9601EAC
:100C5000C4B20120FFF7CDFFFF2801D1002CE4D161
:100C6000012005490860FF2000F080FB0CB9FF203F
:100C700010BD0020FCE70000B082404200804042EE
:100C80000EB5124A07CA8DE8070000F089FA00F095
:100C90001CFB01200E4908600A21684600F08CFC0C
:100CA000FFF7B8FF78B900F065F950B900F013F913
:100CB00028B900F039F900F003FB00200EBDFF2039
:100CC000FCE7FF20FAE7FF20F8E70000883C000877
:100CD000B08240422DE9F04106460C461546FF27FA
:100CE00013480078062800D06402002011490860EB
:100CF000FF222146112000F0AAF80020FFF779FF1B
:100D000038B9FE20FFF775FF18B92946304600F0C4
:100D1000C1FB00F026FB00F024FB00270120054961
:100D20000860FF2000F022FB3846BDE8F08100009B
:100D300000000020B08240422DE9F04706460F46F1
:100D4000144698464FF0FF091B480078062800D04B
:100D50007F0200201949086001223946122000F064
:100D600076F80020FFF745FF10B1FF20BDE8F087BF
:100D700000BF2146304600F023F805462644A8F17E
:100D80000100B0F1000801D0002DF2D00122394657
:100D90000C2000F05CF80020FFF72BFF10B14FF0A3
:100DA000FF0901E04FF00009012004490860FF201D
:100DB00000F0DCFA4846D9E700000020B08240424B
:100DC00070B504460D46FE20FFF713FF08B1012061
:100DD00070BD2946204600F05DFBFF2000F0C6FAFA
:100DE000FF2000F0C3FA0020F2E7000010B5002059
:100DF0000549086000F0E9F808B9002010BDFFF7C8
:100E0000B9FC0120FAE70000B08240422DE9F04130
:100E100007460C46154600F0D8F810B10120BDE891
:100E2000F081204600F0A2FAFD2C0ED0294638466B
:100E300000F0C2FBFF2000F099FAFF2000F096FAC4
:100E4000FFF7A0FE052800D10026F0B2E7E77CB549
:100E500006460C46154646F040008DF80000200E70
:100E60008DF80100200C8DF80200200A8DF8030097
:100E7000E0B28DF804008DF805500621684600F0B8
:100E80009BFB7CBD70B505464FF6FE7600BFFFF7B5
:100E900071FCFFF7ABFF012200213720FFF7D7FFDE
:100EA000FFF796FEFFF766FCFFF7A0FF0122294639
:100EB0001720FFF7CCFFFFF78BFE044624B1301E4E
:100EC000A6F101018EB2E2D1FFF754FC0EB1002071
:100ED00070BDFF20FCE770B54FF6FE7500BFFFF751
:100EE00049FCFFF783FF012200213720FFF7AFFF06
:100EF000FFF76EFEFFF73EFCFFF778FF0122910738
:100F00002920FFF7A4FFFFF763FE044624B1281E43
:100F1000A5F101018DB2E2D1FFF72CFC0DB100204B
:100F200070BDFF20FCE7000008B5FFF75FFF01225E
:100F300000213A20FFF78BFF0020FFF75AFE98B9F7
:100F40000421684600F0A6FA9DF8000000F0400079
:100F500018B106200649087002E004200449087010
:100F6000FFF708FC002008BDFFF704FCFF20FAE7AC
:100F70000000002008B5FFF739FF87224FF4D57134
:100F80000820FFF764FF0120FFF733FE88B9042132
:100F9000684600F07FFAFFF7EDFB9DF8020001289C
:100FA00005D19DF80300AA2801D1002008BDFF202B
:100FB000FCE7FFF7DFFBFF20F8E710B5FFF768FB62
:100FC000FFF7E2FBFFF76EFB10BD10B5002400BF7A
:100FD000FF2000F0CBF9FF2801D1002010BD641CD8
:100FE0006FF07F408442F3D30120F7E72DE9F04111
:100FF00006460C461546FF2717480078062800D0FD
:101000006402002015490860FF2221461820FFF7DE
:101010001EFF0020FFF7EDFDA0B9FF2000F0A6F9AC
:10102000FE2000F0A3F92946304600F0C5FAFF2063
:1010300000F09CF9FF2000F099F9FFF7A3FD0528C7
:1010400000D10027012005490860FF2000F08EF93B
:101050003846BDE8F081000000000020B082404228
:101060002DE9F04706460F4690461C464FF0FF0913
:101070001F480078062800D07F021D48007801280C
:1010800002D02046FFF7FEFE00201A490860012228
:1010900039461920FFF7DBFE0020FFF7AAFD10B14B
:1010A000FF20BDE8F08700BF4246FC213046FFF735
:1010B000ADFE05464644601E041E01D0002DF3D04F
:1010C000FD2000F053F90020FFF793FD08B1FF2049
:1010D000E7E74FF00009FFF755FD052800D100BFF5
:1010E000012004490860FF2000F040F94846D8E795
:1010F00000000020B082404200B58FB001214805B9
:10110000FFF722FA01218803FFF72EFA2248FFF7A2
:1011100099F800BF2048FFF741F90028FAD1029062
:1011200040200390002004904FF480600690C0019E
:101130000A90002000901948019000200590079027
:10114000089009900B9003200C9000200D900E90B9
:1011500069461148FFF74EF90F481838FFF772F843
:1011600000BF0D481838FFF719F90028F9D103908E
:10117000694609481838FFF73DF90122022107485E
:101180000C3800F0C7F80122114604480C3800F072
:10119000C1F80FB000BD0000706002400C38004084
:1011A00000B587B001210220FFF7CEF901218803A5
:1011B000FFF7DAF94FF48050059001208DF8180000
:1011C00000208DF81A0002208DF8190001208DF8FA
:1011D0001B0005A93748FFF73AF94FF40050059076
:1011E00002208DF8180000208DF81A0002208DF8DA
:1011F000190001208DF81B0005A92E48FFF727F9DB
:101200004FF48040059002208DF8180001208DF8E1
:101210001B0005A92748FFF71AF94FF40040059075
:1012200002208DF8180000208DF81A0002208DF899
:10123000190001208DF81B0005A91E48FFF707F9CA
:1012400005220D211B48FFF74AF905220E211948F6
:10125000FFF745F905220F211648FFF740F9012055
:10126000154908600020ADF800004FF48270ADF819
:1012700002000020ADF804000220ADF806000120B5
:10128000ADF808004002ADF80A003820ADF80C00B7
:101290000020ADF80E000720ADF8100069460748A1
:1012A00000F041F8FFF728FF0121044800F026F87C
:1012B00007B000BD00040240B08240420038004048
:1012C00010B5082000F006F810BD10B5382000F069
:1012D00001F810BD10B50446074800884FF6C771E5
:1012E00008400549088008460088204308800121FD
:1012F000014800F003F810BD0038004021B1028819
:1013000042F04002028004E002884FF6BF731A40A8
:10131000028070471AB183880B43838002E0838880
:101320008B438380704710B50022028802F441523B
:101330000B884C8823438C882343CC8823430C8917
:1013400023434C8923438C892343CC8923431A4369
:101350000280838B4FF2FF74234083830B8A0382C6
:1013600010BD10B5FF2000F001F810BD10B592B00F
:101370000446119400214448FEF758FF00BF42483C
:10138000FFF70CF80028FAD110A803900020049071
:101390000120059080020790C0010B900020019071
:1013A0003A48029000200690089009900A900C900C
:1013B00003200D9000200E900F9001A93248FFF7F6
:1013C00019F831481830FEF73DFF00BF2E4818309D
:1013D000FEF7E4FF0028F9D111A803904020049003
:1013E0000120059080020790C0010B9001A92648BA
:1013F0001830FEF7FFFF4FF0FA512348FEF7FCFECE
:10140000234921481830FEF7F7FE01211E48FEF758
:101410000DFF01211C481830FEF708FF01220221B0
:101420001A480C38FFF776FF0122114617480C388E
:10143000FFF770FF00BF16491D3913481830FEF73B
:10144000B7FF0028F7D000BF4FF0C0510E48FEF79D
:10145000AFFF0028F8D000210B48FEF7E7FE00217F
:1014600009481830FEF7E2FE4FF0C0510648FEF77B
:10147000C3FE07491D3904481830FEF7BDFE9DF82C
:10148000400012B010BD0000586002400C3800400F
:101490003D00002030B591B005460C46FF2010906D
:1014A00000214248FEF7C2FE00BF4048FEF776FF2B
:1014B0000028FAD10395049005944FF480600790BA
:1014C000C0010B9000200190394802900020069046
:1014D000089009900A900C9003200D9000200E9027
:1014E0000F9001A93148FEF785FF30481830FEF70C
:1014F000A9FE00BF2D481830FEF750FF0028F9D193
:1015000010A80390402004900594002007904FF409
:1015100000300B9001A925481830FEF76BFF4FF003
:10152000FA512248FEF768FE224920481830FEF79B
:1015300063FE01211D48FEF779FE01211B4818308A
:10154000FEF774FE0122022119480C38FFF7E2FE73
:101550000122114616480C38FFF7DCFE00BF154982
:101560001D3912481830FEF723FF0028F7D000BFBE
:101570004FF0C0510D48FEF71BFF0028F8D00021A6
:101580000A48FEF753FE002108481830FEF74EFEC9
:101590004FF0C0510548FEF72FFE06491D3903489C
:1015A0001830FEF729FE11B030BD0000586002402F
:1015B0000C3800403D00002030B58FB004460D4689
:1015C0002248FEF73FFE00BF2048FEF7E7FE002856
:1015D000FAD1029440200390049500010690C001C6
:1015E0000A90002000901A48019000200590079072
:1015F000089009900B9003200C9000200D900E9005
:1016000069461248FEF7F6FE12491048FEF7F4FD4F
:10161000012202210E480C38FFF77CFE01210B4805
:10162000FEF704FE00BF0B491D390848FEF7C0FE57
:101630000028F8D000210548FEF7F8FD05491D39BE
:101640000248FEF7D9FD0FB030BD000070600240C7
:101650000C3800403D000020704700000CB5002011
:10166000019000903448006840F4803032490860AE
:1016700000BF3148006800F4003000900198401C21
:101680000190009818B90198B0F5A04FF1D12A48FF
:10169000006800F4003010B10120009001E000204B
:1016A00000900098012846D123484030006840F05F
:1016B00080502149403108602048006840F4404093
:1016C0001E4908601C48083000681B490831086042
:1016D0000846006840F4004008600846006840F48E
:1016E000A05008601648091F0860081F006840F0F5
:1016F0008070091F086000BF0F48006800F000708C
:101700000028F9D040F205700E4908600A480830F8
:10171000006820F0030008490831086008460068A6
:1017200040F00200086000BF03480830006800F085
:101730000C000828F8D10CBD0038024000700040B1
:1017400008544007003C0240042808D14FF0E02133
:10175000096941F004014FF0E022116107E04FF008
:10176000E021096921F004014FF0E0221161704786
:101770007047000010B51548006840F47000134928
:1017800008601348006840F001001149086000201B
:101790000F49083108600E4800680E4908400C499E
:1017A00008600D48091D0860081F006820F48020AB
:1017B000091F0860002006490C310860FFF74EFF42
:1017C0004FF0006001498039086010BD88ED00E0ED
:1017D00000380240FFFFF6FE1030002421B182895C
:1017E00042F40052828104E082894DF6FF731A4070
:1017F000828170472DE9FF4705460E460024A14629
:1018000000BFA046B08900B100BF2C8A24F4405428
:10181000F08804432C82AC8941F20C608443B08888
:1018200031890843718908430443AC81AC8A24F4AC
:101830004074B0890443AC826846FEF7B5FE204888
:10184000854202D01F48854202D1DDF80C9001E0AC
:10185000DDF80890A88900F4004040B109EBC90008
:1018600000EB091031684900B0FBF1F707E009EB24
:10187000C90000EB091031688900B0FBF1F7642062
:10188000B7FBF0F004012009642101FB1078A8895E
:1018900000F4004040B1322000EBC800B0FBF1F092
:1018A00000F00700044308E0322000EB0810642138
:1018B000B0FBF1F000F00F0004432C81BDE8FF877E
:1018C000001001400014014000BFFEE70FB40846BD
:1018D00010B5064A02A900F01AF8044602A9002031
:1018E00000F026F8204610BC5DF814FB3119000802
:1018F00002E008C8121F08C1002AFAD170477047D9
:10190000002001E001C1121F002AFBD170472DE920
:10191000F04116460F460446002503E03946B0471D
:10192000641C6D1C20780028F8D12846BDE8F081A1
:101930000A68531C0B6010707047000070B50446B5
:101940000D460020E070401E20632946204601F02D
:101950002FFF08B1042070BD04F2322001F05FFDBA
:101960004AF65521884201D00320F4E700BF94F8DD
:101970003400E92807D094F83400EB2803D094F819
:101980003400E82811D1032209A104F16A0001F012
:1019900091FD08B90020DEE7052206A104F18600CA
:1019A00001F088FD08B90020D5E70220D3E7000048
:1019B000464154004641543332000000024600E0E4
:1019C000521C107810B110788842F9D11078704705
:1019D00030B502460B46002400211CE01A4800EBFB
:1019E00001100068A8B1184800EB011000681568E4
:1019F000A8420FD1144800EB011040689568A84236
:101A000008D1114800EB011080685569A84201D146
:101A100003E00124491C0329E0D300BF032906D1B8
:101A20001CB9022B01D0122030BD0020FCE733B9D5
:101A3000054800EB01108089B0F5807F01D11020AE
:101A4000F2E70020F0E70000000F00200146002030
:101A50000BE0074A02EB001212688A4204D100220E
:101A6000034B03EB00131A60401C0328F1D37047AB
:101A7000000F0020F0B503460D461E68D86A021D0F
:101A8000680A7789B0FBF7F400BF02CA09B90020E1
:101A9000F0BD8C4200D202E0641A121DF5E700BFCF
:101AA00010682044F4E70246891E9069801E88422F
:101AB00001D8002070475389D06A03FB0100F9E781
:101AC0002DE9F04780460C4604F11A0001F0A7FC0E
:101AD00010B10020BDE8F087207800F03F00401EE4
:101AE00000EB800101EBC0054FF00109002621E069
:101AF0001849895D081901F092FC0746B9F1000FF9
:101B000011D0FF2D0BD8384601F0CEF98246294678
:101B10006D1C38F8110001F0C7F9824501D0002092
:101B2000D8E7B94605E04FF6FF70874201D00020A4
:101B3000D0E7761C0D2EDBD3207800F0400038B1C2
:101B4000B9F1000F04D038F8150008B10020C1E742
:101B50000120BFE7B83C00082DE9F04782468846DF
:101B6000DAF80040B8F1000F06D1276917B1A06973
:101B7000B84215D8012713E04146504601F006FB54
:101B80000546022D02D20120BDE8F087681C08B985
:101B90002846F9E7A069A84201D92846F4E7474654
:101BA000606908B90020EFE70026474518D17E1C80
:101BB000A069B04200D802263146504601F0E6FA4C
:101BC0000546012D01D0681C08B92846DCE73DB167
:101BD0002569022D03D3A069A84200D92F4600260B
:101BE000E6B93E4600BF761CA069B04204D8022682
:101BF000BE4201D90020C7E73146504601F0C6FA7F
:101C0000054605B909E0012D01D0681C08B9284630
:101C1000BAE7BE42E7D10020B6E700BF4FF0FF327F
:101C20003146204601F0DEFD8146B9F1000F08D1B2
:101C3000B8F1000F05D032464146204601F0D2FDF2
:101C40008146B9F1000F0DD12661D4E90510801E3F
:101C5000814202D86069401E6061207940F0010035
:101C6000207107E0B9F1010F02D14FF0FF3000E021
:101C700001200646304687E72DE9F34F83B08146C1
:101C8000049800680090D9F80000D0F80CA0002556
:101C900000BF684601F071FF83460BF1010018B9DF
:101CA000062005B0BDE8F08FBBF5803F05D34FEAB5
:101CB0001B4228466D1C2AF810201FFA8BF4202C9A
:101CC00003DB2F2C01D05C2C00D111E0802C06DA34
:101CD00021467BA0FFF772FE08B10620E1E7FF2D49
:101CE00001D30620DDE728466D1C2AF81040D0E716
:101CF00000BF202C01DA04260CE0002602E0009848
:101D0000401C0090009800782F28F8D000980078A8
:101D10005C28F4D000990498016008E0681E3AF845
:101D20001040202C02D02E2C00D002E06D1E002D81
:101D3000F4D100BF00202AF815000DB90620B0E745
:101D4000002700E07F1C3AF817002028FAD01FB9BE
:101D50003AF817002E2801D146F0030600E06D1E68
:101D600025B1681E3AF810002E28F8D10B22202148
:101D700009F1240001F0BDFB4FF00008CDF8088008
:101D80000820019000BF38467F1C3AF8104004B983
:101D90006AE0202C03D02E2C04D1AF4202D046F0B2
:101DA0000306F0E7DDE90110884201D2AF4216D107
:101DB00001980B2802D146F0030655E0AF4201D04E
:101DC00046F00306AF4200D94EE02F4608200290AD
:101DD0000B2001904FEA88604FEA1068D3E7802C0F
:101DE0000EDB46F0020640F2B511204601F03CF849
:101DF000044604F0800018B104F07F0033490C5C05
:101E0000FF2C11DD0198401E0299884204D846F04B
:101E1000030601980290B6E722120298411C029133
:101E200009F124010A5418E024B1214628A0FFF743
:101E3000C5FD18B15F2446F003060EE0412C03DB1C
:101E40005A2C01DC48F00208612C06DB7A2C04DCF9
:101E500048F00108A4F1200084B20298411C0291CC
:101E600009F124010C548EE700BF99F82400E528FD
:101E700002D1052089F824000198082803D14FEAEF
:101E800088604FEA106808F00C000C2803D008F0B6
:101E90000300032801D146F0020606F0020048B90B
:101EA00008F0010008B146F0100608F0040008B17F
:101EB00046F008062F2000F809600020F1E6000037
:101EC000222A3A3C3E3F7C7F00000000C53C0008CF
:101ED0002B2C3B3D5B5D0000014609B100207047A3
:101EE0000020FCE7014609B1002070470020FCE714
:101EF00010B50246531E1A46032B17D20C4B03EBA8
:101F000002139989B1F5807F00D10021002901DDFC
:101F10004B1E99B2064B03EB0213998121B90023A2
:101F2000034C04EB02142360002000E0022010BDEB
:101F3000000F002010B504466FF00400FFF704FC0A
:101F4000E11704EB5171C1F3C701074A1170104644
:101F5000007800EB4001C1EBC0104FF6FF7101EAC1
:101F6000C0000249088010BD0200002004000020CB
:101F700070B504464FF4077094FBF0F0C6B24FF40E
:101F8000077094FBF0F100FB114085B205E04FF4BF
:101F9000077000F009F8701EC6B2002EF7D115B117
:101FA000284600F001F870BD0146114A12884A43E4
:101FB0004FF0E0235A6100229A611A46126942F0FA
:101FC00001021A6100BF4FF0E022106900F0010227
:101FD0001AB100F48032002AF5D04FF0E0221269E5
:101FE00022F001024FF0E0231A6100229A6170474B
:101FF000040000202DE9F04104460E46D4F800808C
:102000000021204600F00DFA0546EDB9002700BF7B
:102010004046E16901F0CCFB054605B113E0206ABA
:102020000078E52802D0206A007820B9781C07469D
:10203000B04201D107E000270121204600F0EBF873
:102040000546002DE4D000BF042D00D10725284609
:10205000BDE8F0812DE9F04704468946204601F0AD
:1020600067FD10B10120BDE8F08749462046FFF723
:102070001AFD074627634FF40072002104F1340073
:1020800001F037FA60894FF40041B1EB402F01D8DD
:10209000084601E06089400206464FF0000800E073
:1020A0007608B6F5007F05D9304600F0BAFEB0F1EB
:1020B0000008F5D0B6F5007F17D93246002140461A
:1020C00001F017FA760A002500E035446089A8423D
:1020D00007D97A1960783346414600F060FA002843
:1020E000F3D0404600F0A3FE10E004F134080126CE
:1020F000002500E035446089A84207D97A19607844
:102100003346414600F04BFA0028F3D06089A842DC
:1021100001D00120A7E70020A5E72DE9F0470446FC
:10212000D4F800A00021204600F07BF9064616B145
:102130003046BDE8F0874FF0FF08C1464FF0FF3052
:10214000206300BF5046E16901F032FB064606B14C
:102150005EE0206A05780DB9042659E0206AC07A4D
:1021600000F03F07A771E52D04D007F0080038B153
:102170000F2F05D04FF0FF084FF0FF30206340E0F5
:102180000F2F22D12F20005D00F0400098BB05F0FA
:10219000400038B1206A90F80D9005F0BF05A846C0
:1021A0006069206345450CD1206A407B484508D1D1
:1021B000216ADAF80C00FFF783FC10B1A8F10100E6
:1021C00000E0FF2000F0FF081BE0B8F1000F05D190
:1021D000206A01F054FC484500D119E02F20005D31
:1021E00000F0010040B90B2204F12401206A01F043
:1021F00061F908B90CE004E04FF0FF084FF0FF3040
:1022000020630021204600F006F80646002E99D0F3
:1022100000BF30468DE72DE9F04104468846276827
:10222000606900F12006B6F5001F01D30020E061CF
:10223000E06910B90420BDE8F081C6F30800002869
:1022400045D1E069401CE061A06938B93889B0EB3C
:10225000561F3CD80020E0610420ECE77889401E3E
:1022600000EA562098BB2046A16900F08FFF054682
:10227000012D01D80220DEE7681C08B90120DAE749
:10228000B869A8421DD8B8F1000F03D10020E06161
:102290000420D0E72046A169FFF75EFC05460DB992
:1022A0000720C8E7012D01D10220C4E7681C08B946
:1022B0000120C0E729463846FFF7CCFE08B10120CF
:1022C000B9E7A56129463846FFF7EDFBE061666195
:1022D000C6F3080107F13400084420620020AAE791
:1022E0002DE9FE4F044626682F20005D00F0A00077
:1022F00010B10620BDE8FE8F4FF0000901E009F1A2
:102300000109F06830F819000028F8D10C2204F116
:102310002401684601F0E0F89DF80B0000F0010090
:1023200028B340212F2001554FF001080EE043460D
:10233000694604F12400F26800F0C2FE2046FFF76F
:10234000ECFE054605B104E008F10108B8F1640FA0
:10235000EDD300BFB8F1640F01D10720CAE7042D07
:1023600001D02846C6E79DF80B102F2001559DF897
:102370000B0000F0020030B109F10C000D21B0FBA0
:10238000F1F0401C00E00120074639462046FFF7E7
:1023900031FE05464DBB781E071E26D06069A0EBB6
:1023A0004711204600F03DF80546F5B904F1240038
:1023B00001F065FB824600BF3046E16901F0F8F9A3
:1023C000054605B110E0FAB2216A5346F06801F003
:1023D000A5FA0120F07000212046FFF71CFF0546FA
:1023E00015B9781E071EE7D100BFC5B93046E169AF
:1023F00001F0DEF9054695B920220021206A01F09E
:1024000078F80B2204F12401206A01F065F82F20EE
:10241000005D00F01800216A08730120F070284662
:1024200068E72DE9F04104460D462668B5F5001F22
:1024300002D205F01F0010B10220BDE8F0816561F5
:10244000A7681FB93078032800DBB76A47B930891D
:10245000B0EB551F01D80220EFE7B06AE0611CE045
:1024600070894FEA402811E03946204600F08EFE80
:102470000746781C08B90120DFE7022F02D3B069B4
:10248000B84201D80220D8E7A5EB08054545EBD2B4
:1024900039463046FFF707FBE061A761E06908B9FC
:1024A0000220CAE7E06900EB5520E061C5F30801AE
:1024B00006F13400084420620020BEE770B50546EE
:1024C00025B1012D14D0022D16D113E0FEF7D8FB53
:1024D000044624B90948FEF7FFFA002070BDFEF754
:1024E000F4FEFF20FEF742FFFEF7EAFE0120F5E7CB
:1024F0000120F3E70120F1E70120EFE720000020B1
:1025000070B5044631B1012911D0022904D0032944
:1025100017D106E0002016E04FF40073136000208E
:1025200011E00A4BB3F85030138000200BE0074B4A
:102530009D6CB3F84C30DE0546EA5523136000204D
:1025400001E0042000BF00BF70BD0000200000209B
:102550002DE9F04107460C4615461E4627B1012FCE
:1025600014D0022F16D113E0012E05D17202294694
:102570002046FEF7AFFB06E033464FF400722946D3
:102580002046FEF7D9FB0020BDE8F0810020FBE7E4
:102590000020F9E70420F7E70146002070472DE905
:1025A000F04107460C4615461E4627B1012F14D0B0
:1025B000022F16D113E0012E05D1720229462046C2
:1025C000FEF714FD06E033464FF40072294620461C
:1025D000FEF746FD0020BDE8F0810020FBE700206B
:1025E000F9E70420F7E70000002100E0491C032977
:1025F00005D2064800EB011000680028F6D1032937
:1026000001D0012070470020FCE70000000F0020EF
:1026100038B50546284600F0BDFA044664B9694657
:10262000284601F013FB044634B92869FFF760FC23
:1026300004460CB900202860204638BD2DE9F04F33
:1026400089B004460D4607A9204601F0FFFA08901C
:10265000089808B9607D0890089818B1089809B0E2
:10266000BDE8F08FE06A00287CD0681C002843D1C8
:10267000D4F82C9059F8040B029002200190A7681E
:1026800067B300BF0397002004900198801C01905D
:1026900000BF05970498401C04903946204600F07E
:1026A00075FD0746012F02D802206075D7E7781C18
:1026B00010B901206075D2E70598401C8742E8D028
:1026C000DDE90101884205D8049849F8040B039814
:1026D00049F8040B07988069B842D3D80198E16A99
:1026E0000860DDE90101884203D80020C9F8000034
:1026F000FAE011200890F7E0E068A84200D2E5680F
:10270000A561002DF4D0691E2046FFF7B3F9E06102
:10271000E1690798FFF7C7F98246BAF1000F02D1C5
:10272000022060759BE707984089401E691E00EAF9
:1027300051208244208BC0F308000028D8D0206AA2
:102740005045D5D0207D00F0800080B1226A0799E5
:102750004878012304F13001FFF721FF18B101206F
:1027600060757CE712E0207D00F07F0020750799FE
:1027700048780123524604F13001FFF7E9FE10B119
:10278000012060756BE7C4F820A0ADE0E068A842C6
:1027900004D2207D00F0020000B9E568A06906902F
:1027A0004FF0000BC4F818B0002D6AD0079840898C
:1027B0004FEA4028069890B1681EB0FBF8F10698E1
:1027C000401EB0FBF8F0814209D30698401EA8F1E4
:1027D00001018843A061A0692D1AE66912E0A6688C
:1027E0007EB900212046FFF7B7F90646012E02D137
:1027F0000220607533E7701C10B9012060752EE768
:10280000A660E661D6B325E0A5EB0805A0694044C3
:10281000A061207D00F0020040B100BF314620469B
:10282000FFF79AF9064636B9002515E031462046ED
:1028300000F0ACFC0646701C10B9012060750EE774
:10284000012E03D907988069B04202D80220607532
:1028500005E7E6614545D7D800BFA0692844A061D7
:10286000C5F3080050B131460798FFF71CF98346BD
:10287000BBF1000F03D102206075F0E601E00BEB25
:10288000552BE168A069884205D9A069E060207DE8
:1028900040F040002075208BC0F3080020B3206A70
:1028A000584521D0207D00F0800078B1226A079938
:1028B0004878012304F13001FFF771FE10B10120C7
:1028C0006075CCE6207D00F07F0020750799487880
:1028D00001235A4604F13001FFF73AFE10B10120FE
:1028E0006075BCE6C4F820B00898B8E6F7B582B0C9
:1028F00016460398019001A800F0BAFC0546002D89
:1029000002DA0B2005B0F0BD0E4850F8254024B186
:102910002046FFF79BF800202070029810B100209D
:10292000029908700749029841F825000EB9002065
:10293000E8E7002202A903A800F0E4FD07463846B4
:10294000E0E70000DC0E00202DE9F74F92B00446CE
:1029500016461CB9092015B0BDE8F08F06F03F06F9
:10296000324603A913A800F0CDFD0546002D7DD108
:10297000039804904FF4007000F053FA8346BBF1C3
:10298000000F01D11120E6E70398C0F80CB004A8AD
:10299000139900F01DFB05468DB99DF83F0000F02E
:1029A000800008B106250AE026F0010008B10120E8
:1029B00000E00020014604A8FFF70AF8054606F0EB
:1029C0001C00002857D06DB1042D08D1FFF70CFE74
:1029D00018B104A8FFF784FC00E01220054646F079
:1029E00008060AE09DF8160000F0110008B107255E
:1029F00003E006F0040000B10825002D4CD106F0DC
:102A00000800A0B30C99039800F0EAFC814600F09E
:102A10002DFC01900C9901F10E00019901F01DF8B7
:102A200020200C99C87200220C99039801F003F839
:102A30000C9901F11C00002101F00FF8012003990D
:102A4000C870B9F1000F27D00398D0F830A0002249
:102A5000494604A800F0A2FF054645B9514603982F
:102A600000F0A6FE0546A9F1010001E08DE013E0AB
:102A70000399086110E07DB99DF8160000F0100080
:102A800008B1042508E006F0020028B19DF8160000
:102A900000F0010000B10725BDB906F0080008B13B
:102AA00046F040060398006B60620C98A06226F026
:102AB000010008B1012000E00020014604A800F058
:102AC00031FC2061206900B90225002D5AD10C99F2
:102AD000039800F085FCA0600C9901F11C0000F047
:102AE00092FCE0600020E062039820600398C088B8
:102AF000A0802675002060752062A0614FF40072EE
:102B0000002104F1300000F0F4FC06F0200058B37E
:102B1000E06848B3E068A0610398408940020290F1
:102B2000A768D4F80C800DE03946204600F02EFB53
:102B30000746012F00D80225781C00B9012502980C
:102B4000A8EB000815B902988045EDD8E7615DB99A
:102B5000C8F3080040B139460398FEF7A4FF824647
:102B6000BAF1000F01D102250CE00AEB58202062D7
:102B7000226A03994878012304F13001FFF7E8FC49
:102B800000B10125584600F052F90DB10020206037
:102B90002846E0E6F8B504466946204601F056F8B6
:102BA0000646002E44D1207D00F0400000283FD092
:102BB000207D00F0800070B1226A009948780123DE
:102BC00004F13001FFF7EBFC08B10120F8BD207DD6
:102BD00000F07F00207500F049FB0746616A00980D
:102BE00000F0E6FD06461EBBA56AE87A40F020002C
:102BF000E8722946A268206800F01DFF05F11C005C
:102C0000E16800F02AFF394605F1160000F025FFC3
:102C1000002105F1120000F02CFF01200099C8707E
:102C2000009800F03DFF0646207D00F0BF002075B3
:102C30003046CBE72DE9FF4F83B0044615469B464F
:102C4000049800900020CBF8000001A9204600F075
:102C5000FDFF0290029810B9607D029018B10298B1
:102C600007B0BDE8F08F207D00F0020008B9072012
:102C7000F6E700BFA0692844A169884202D2A06992
:102C8000C0F1FF35C3E0208BC0F3080000287DD1E0
:102C900001984089401EA16900EA512ABAF1000F4B
:102CA00026D1A06938B9A76897B900212046FEF758
:102CB00053FF07460CE0E06A28B12046A169FEF701
:102CC000D9FE074604E02046E169FEF745FF0746C6
:102CD00007B99FE0012F02D102206075C0E7781C80
:102CE00010B901206075BBE7E761A06800B9A76073
:102CF000207D00F0800078B1226A01994878012394
:102D000004F13001FFF74BFC10B101206075A7E71B
:102D1000207D00F07F002075E1690198FEF7C3FE79
:102D2000064616B9022060759AE756444FEA5529BF
:102D3000B9F1000F2BD00AEB0900019949898842AB
:102D400003D901984089A0EB0A09019948784B46BC
:102D500032460099FFF723FC10B1012060757FE730
:102D6000206A801B48450ED2206A801B009A02EB25
:102D700040214FF4007204F1300000F0ADFB207DE3
:102D800000F07F0020754FEA49282BE013E0206A0D
:102D9000B0420FD0E168A06988420BD2019948780F
:102DA0000123324604F13001FFF7D2FB10B10120BC
:102DB000607555E72662208BC0F30800C0F50078E7
:102DC000A84500D9A846218BC1F3080204F13001BF
:102DD00050184246009900F07FFB207D40F08000B3
:102DE000207500BFA5EB0805DBF800004044CBF8D8
:102DF0000000009840440090A0694044A061E16850
:102E0000A069884201D9A06900E0E068E060002D77
:102E10007FF439AF00BF207D40F0400020750020D6
:102E20001EE710B50446204600F00EFB10BD10B59D
:102E30000446204600F01CF910BD000010B5024603
:102E40000020084B802A01DA104609E040F2B51450
:102E5000A14205D1FF2A03DCA2F1800433F814005B
:102E600010BD0000843D000810B5024600200D4B47
:102E7000802A01D290B213E0B2F5803F10D240F226
:102E8000B514A1420CD1002001E0441CA0B280285E
:102E900003DA33F810409442F7D100F18004E0B235
:102EA00010BD0000843D000870B5B0F5803F4DD2E4
:102EB00081B2B1F5805F01DA254E00E0254E324641
:102EC00000BF32F8023B0BB1994200DA3CE032F825
:102ED000024B2512E4B21E198E4230DD092D2CD290
:102EE000DFE805F005090F13171B1F232700CE1A73
:102EF00032F8161021E0CE1A06F001068E1BB1B290
:102F00001BE0A1F11006B1B217E0A1F12006B1B2A9
:102F100013E0A1F13006B1B20FE0A1F11A06B1B28F
:102F20000BE001F10806B1B207E0A1F15006B1B221
:102F300003E0A1F5E356B1B200BF00BF04E0002DED
:102F4000BFD102EB4402BCE700BF084670BD0000E1
:102F5000843E0008764000082DE9FF4107460D46F3
:102F600000213846FEF7EAFC0646022E06D0032E64
:102F700000D21DB9304604B0BDE8F08100BF002486
:102F80000AE007F5F97101EB041101F1080000F006
:102F90003AFA4DF82400641C042CF2D30DB1681EDB
:102FA00000E00020044600BF5DF8240028B15DF871
:102FB00024103846FEF7C2FC00E0032006462DB977
:102FC000022E03D3601C04460428EDD33046D2E71A
:102FD0002DE9F3410446276802E00198401C019066
:102FE000019800782F28F8D0019800785C28F4D058
:102FF0000020A06001980078202808D280212F208E
:10300000015500212046FFF70CFA05462CE000BFD1
:1030100001A92046FEF730FE054605B123E0204613
:10302000FFF77BF805462F20065D3DB1042D04D146
:1030300000BF06F0040000B9052514E006F0040006
:1030400000B110E0A07900F0100008B905250AE0F1
:10305000A08AC0F3080207F134001118384600F0C6
:10306000BFF9A060D4E700BF2846BDE8FC8100009E
:1030700010B5002821D0114B0022001F196803E071
:10308000814203D80A4649680029F9D152B1136830
:10309000841A9C4204D1006818441060104602E073
:1030A000506000E0186039B102680B1A934203D1F6
:1030B0000B681A4402604968416010BD1800002086
:1030C0002DE9FF4F83B0804691461E460B224046B5
:1030D000049900F001FA052E18D9374611E039F8A5
:1030E00002BB00250BE0584667F35F0007464FEA36
:1030F0006B0B07F4803008B1234847406D1C102D3E
:10310000F1D3B9F800000028E9D13E46072500BFF9
:1031100006F00F0000F1300ABAF1390F03DD0AF1B1
:10312000070000F0FF0A28466D1E01A901F800A063
:103130003609002EECD17E20485500240AE018F80C
:103140000400FEF7C9FE20B1681EA04200D107E0CE
:10315000641C641CAC4203D218F804002028EED191
:1031600000BF00BF082D04D228466D1C01A9085CD1
:1031700000E020202146641C08F80100082CF1D34F
:1031800007B0BDE8F08F0000211001002DE9F047E5
:1031900081460C46D9F80050022C02D3A869A042FF
:1031A00002D84FF001085EE04FF0FF382878012880
:1031B00004D002282CD0032851D13CE0264606EB4F
:1031C0005606686A00EB5621284600F0F1FA00B175
:1031D00048E03046761CC0F3080105F13400475C36
:1031E000686A00EB5621284600F0E2FA00B139E0A7
:1031F000C6F3080105F13400405C47EA002704F0FB
:10320000010008B1380901E0C7F30B00804629E04E
:10321000686A00EB1421284600F0CAFA00B121E0E8
:1032200040F2FF1101EA440205F13401501800F0A8
:10323000F6F8804616E0686A00EBD411284600F0E4
:10324000B7FA00B10EE040F2FF1101EA840205F185
:103250003401501800F0D7F820F0704802E04FF029
:10326000010800BF00BF4046BDE8F087002070475E
:10327000F0B506464FF0FF30D6F800C06146634611
:1032800001B9F0BD00BF13F8012B202A01D33A2A5F
:10329000F9D13A2A40D1092591F800C0BCF1300F8C
:1032A0000DDB91F800C0BCF1390F08DC01F1020C14
:1032B0009C4504D191F800C0ACF1300527E0002511
:1032C00000BFDFF85CC05CF82570316800BF17F8FC
:1032D000014B11F8012B612C05DB7A2C03DCA4F1E6
:1032E000200C0CF0FF04612A05DB7A2A03DCA2F132
:1032F000200C0CF0FF020CB19442E8D00CB99942BA
:1033000005D005F1010C6546BCF1090FD9DB092D8B
:1033100001DA28463360B4E7002000BFB1E70000BF
:10332000943C000810B502460B46002116E02B48DD
:1033300000EB011000681468A0420ED1274800EB92
:10334000011040689468A04207D1244800EB0110A6
:1033500080685469A04200D102E0491C0329E6D3E9
:1033600000BF032922D1002100E0491C032905D216
:103370001A4800EB011000680028F6D1032901D19A
:10338000002010BD154C04EB011410682060134C94
:1033900004EB011490686060104C04EB0114506958
:1033A000A06000200D4C04EB0114A081012B06DB72
:1033B0000A4800EB0110808908B10020E1E713B151
:1033C0004FF4807004E0054800EB01108089401C38
:1033D000024C04EB0114A081481CD2E7000F00202E
:1033E00070B505460C4604F11A0000F018F80646C0
:1033F0002878032805D104F1140000F010F846EAFB
:103400000046304670BD0146C8788A7842EA0020FE
:103410004A7842EA00200A7842EA002070470146D2
:1034200048780A7842EA002070474FF4A060FDF720
:103430007FF8A820FEF77EFD4FF4E13000F0C4FBDA
:10344000FDF7BBFD00BFFEE7F0B50B30154D20F0DA
:1034500007010024144A0FE003688B420BD38B4210
:1034600005D95E1A43184768C3E9006700E043685E
:10347000136002C004E0021D10680028ECD1204651
:10348000002802D1286808B10020F0BD064A07488C
:103490001060074A121A22F00702C0E90024012036
:1034A0002860D7E71C00002018000020340F0020FF
:1034B00030170020F0B503461D460C46002000BF23
:1034C00015F8017B14F801CBA7EB0C00561E321E39
:1034D00001D00028F4D0F0BD30B503460C463AB117
:1034E00000BF14F8015B03F8015B551E2A1EF8D1DA
:1034F00030BD10B5034600BF03F8011B541E221E49
:10350000FAD110BD2DE9F74F84B000210598016074
:103510000498FFF7ADFE03900398002803DA0B2010
:1035200007B0BDE8F08F9D49039851F820400CB9D1
:103530000C20F5E705980460069800F0FE00069060
:10354000207878B16078FFF727F8074607F0010088
:1035500040B9069820B107F0040008B10A20DFE75F
:103560000020DDE700202070039860706078FEF78F
:10357000A5FF074607F0010008B10320D0E7069831
:1035800020B107F0040008B10A20C9E70021204655
:10359000FFF7E2FC0546042D01D10120C0E7022D12
:1035A00001D30D20BCE7D4F8309004F13F00FFF7C1
:1035B00036FFB0F5007F01D00D20B1E704F14A00DD
:1035C000FFF72DFF064626B904F15800FFF71BFF51
:1035D0000646E6614420005DA070A078012804D072
:1035E000A078022801D00D209AE7A0784643412018
:1035F000005D6081608918B16089411E084008B192
:103600000D208DE704F14500FFF709FF2081207AA6
:1036100000F00F0008B10D2082E704F14700FFF72A
:10362000FEFE8246BAF1000F04D104F15400FFF708
:10363000EAFE824604F14200FFF7F1FE8346BBF149
:10364000000F01D10D206BE70BEB0600218900EB89
:10365000111002900298824501D20D2060E7029875
:10366000AAEB00006189B0FBF1F8B8F1000F01D1BD
:103670000D2055E700254A48804500D803254FF620
:10368000F570804500D8022540F6F570804500D8D9
:1036900001250DB90D2043E708F10200A061C4F82F
:1036A000209009EB0B00606202984844E062032D11
:1036B00013D104F15E00FFF7B2FE08B10D202FE731
:1036C000208908B10D202BE704F16000FFF79BFE75
:1036D000A062A0698000019014E0208908B90D2043
:1036E0001EE7606A3044A062022D02D1A06940004A
:1036F00007E0207E00F00100A16901EB410100EB31
:1037000051000190E169019800F2FF10B1EB502FD8
:1037100001D20D2004E74FF0FF306061206180206E
:103720002071032D2DD104F16400FFF778FE0128EC
:1037300027D109F10101204600F03AF808BB00202A
:10374000207104F23220FFF76AFE4AF655218842C2
:1037500017D104F13400FFF756FE1249884210D108
:1037600004F50670FFF74FFE0F49884209D104F5B2
:103770000770FFF748FE606104F50870FFF743FE2D
:103780002061257009480088401C80B207490880E4
:10379000E0802046FEF75AF90020C1E6DC0E00204A
:1037A000F5FFFF0F52526141727241611600002015
:1037B00070B504460D460026206BA84210D0204666
:1037C00000F0B6F906465EB9607801232A4604F196
:1037D0003401FEF7BDFE10B14FF0FF350126256321
:1037E000304670BD2DE9F04704460D4616464FF0B1
:1037F0000209022D74D3A069A84271D9207801284A
:1038000004D0022849D003280DD15EE02F4607EBF3
:103810005707606A00EB57212046FFF7C9FF814632
:10382000B9F1000F00D075E038467F1CC0F30801E5
:1038300004F1340001EB000805F0010028B1F1B2F9
:1038400098F8000061F31F1000E0304688F800008F
:103850000120E070606A00EB57212046FFF7A8FFC7
:103860008146B9F1000F00D054E0C7F3080104F11C
:10387000340001EB000805F0010010B1C6F3071099
:1038800006E098F8000000F0F000C6F303210843BA
:1038900088F800000120E0703CE0606A00EB152130
:1038A0002046FFF785FF8146B9F1000F00D031E0D7
:1038B000B1B240F2FF1202EA450304F13402981853
:1038C00000F0D7F80120E07024E0606A00EBD51129
:1038D0002046FFF76DFF8146B9F1000F01D019E0D6
:1038E00019E040F2FF1101EA850204F13401501899
:1038F000FFF789FD66F31B00064640F2FF1101EA5F
:10390000850204F134015018314600F0A6F8012078
:10391000E07000BF00BF4846BDE8F0872DE9F047E2
:1039200007460C461546984684F80D800F20E07235
:1039300000202073002104F11A0000F09AF8681E9C
:1039400000EB800101EBC00900200646824600BF63
:103950004FF6FF70864204D0484609F1010937F856
:1039600010600D4911F80A100819314600F081F86D
:103970000EB94FF6FF760AF1010082460D28E7D313
:103980004FF6FF70864202D037F8190008B945F0AB
:1039900040052570BDE8F087B83C00082DE9F047E8
:1039A00081460E4617464FF00008D9F80040022E17
:1039B00002D3A069B04202D80220BDE8F08767B107
:1039C00000BF4FF0FF3239462046FFF70BFF80461D
:1039D000B8F1000F01D04046EFE700BF314648463E
:1039E000FFF7D4FB054605B922E0012D01D10220E5
:1039F000E3E7681C08B90120DFE7002231462046D2
:103A0000FFF7F0FE8046B8F1000F01D04046D4E742
:103A1000D4E90510801E814206D26069401C6061B5
:103A2000207940F0010020712E46A069B042D5D81F
:103A300000BF0020C1E770B506460C461546A9B286
:103A400004F11A0000F015F83078032804D1290C8D
:103A500004F1140000F00DF870BD00F8011B090A14
:103A600000F8011B090A00F8011B090A00F8011BF4
:103A7000704700F8011B091200F8011B704730B5B0
:103A8000014600200B2200BF431003EBC01411F8C5
:103A9000015B6319D8B2531E1A1EF5D130BD000068
:103AA00070B50446204600F043F80546002D38D195
:103AB000207803282ED1207901282BD14202002121
:103AC00004F13400FFF715FD4AF6552104F23220C7
:103AD000FFF7CFFF144904F13400FFF7BEFF13498D
:103AE00004F50670FFF7B9FF04F507706169FFF789
:103AF000B4FF04F508702169FFF7AFFF206A401C8E
:103B000020636078012304F13401226BFEF747FD46
:103B100000202071607800221146FEF7F1FC00B110
:103B20000125284670BD0000525261417272416108
:103B300070B504460025E078E8B16078012304F10F
:103B40003401226BFEF72BFDA0B90020E070616A02
:103B5000206B401AE16988420DD2A07802280AD170
:103B6000E369216BCA186078012304F13401FEF780
:103B700016FD00E00125284670BD2DE9F0410646FE
:103B8000356815F8014B2046FEF7A6F960B115F827
:103B9000017B3846FEF7A6F918B94FF0FF30BDE8B3
:103BA000F08107EB042084B24CB140F2B5112046FD
:103BB000FFF744F9044614B94FF0FF30EFE7A04691
:103BC00035604046EBE7000010B586B004460121A1
:103BD0000846FCF7B9FC01211020FCF7D5FC0722B0
:103BE00009211848FCF77BFC07220A211548FCF73D
:103BF00076FC4FF4C060049002208DF814008DF81C
:103C0000150000208DF8160001208DF8170004A97A
:103C10000C48FCF71CFC00940020ADF80400ADF843
:103C20000600ADF80800ADF80C000C20ADF80A0055
:103C300069460548FDF7DEFD01210348FDF7CEFD8D
:103C400006B010BD000002400010014070B50446EF
:103C50000D4609268CB1206878B12068007860B1E3
:103C6000A0882168C988884207D121684878FEF772
:103C700093FC00F0010000B900260EB9206800E0B6
:103C800000202860304670BDFF00000000000000EA
:103C9000000000005C4100084C4100085841000849
:103CA000544100083C4100084841000834410008E4
:103CB000404100080000000001030507090E101232
:103CC0001416181C1E809A45418E418F804545452B
:103CD0004949498E8F9092924F994F555559999ACB
:103CE0009B9C9D9E9F41494F55A5A5A6A7A8A9AA03
:103CF000ABACADAEAFB0B1B2B3B4B5B6B7B8B9BA9C
:103D0000BBBCBDBEBFC0C1C2C3C4C5C6C7C8C9CA8B
:103D1000CBCCCDCECFD0D1D2D3D4D5D6D7D8D9DA7B
:103D2000DBDCDDDEDFE0E1E2E3E4E5E6E7E8E9EA6B
:103D3000EBECEDEEEFF0F1F2F3F4F5F6F7F8F9FA5B
:103D4000FBFCFDFEFF2B2E2C3B3D5B5D2F5C222AF6
:103D50003A3C3E3F7C7F0000010004001000400020
:103D60000001000200000100020004000800100031
:103D7000200000000700000000000000000000001C
:103D800000000000C700FC00E900E200E400E000E1
:103D9000E500E700EA00EB00E800EF00EE00EC00D1
:103DA000C400C500C900E600C600F400F600F20039
:103DB000FB00F900FF00D600DC00A200A300A50074
:103DC000A7209201E100ED00F300FA00F100D1001C
:103DD000AA00BA00BF001023AC00BD00BC00A100C7
:103DE000AB00BB0091259225932502252425612552
:103DF0006225562555256325512557255D255C25CA
:103E00005B251025142534252C251C2500253C2553
:103E10005E255F255A255425692566256025502590
:103E20006C25672568256425652559255825522563
:103E300053256B256A2518250C25882584258C2576
:103E400090258025B103DF009303C003A303C303C0
:103E5000B500C403A6039803A903B4031E22C60336
:103E6000B50329226122B100652264222023212387
:103E7000F7004822B0001922B7001A227F20B200B2
:103E8000A025A00061001A03E0001703F800070353
:103E9000FF00010078010001300132010601390103
:103EA00010014A012E017901060180014D004302F3
:103EB00081018201820184018401860187018701D9
:103EC00089018A018B018B018D018E018F01900187
:103ED0009101910193019401F601960197019801D6
:103EE00098013D029B019C019D0120029F01A001C0
:103EF000A001A201A201A401A401A601A701A7019A
:103F0000A901AA01AB01AC01AC01AE01AF01AF0147
:103F1000B101B201B301B301B501B501B701B801F7
:103F2000B801BA01BB01BC01BC01BE01F701C0016F
:103F3000C101C201C301C401C501C401C701C80157
:103F4000C701CA01CB01CA01CD011001DD01010089
:103F50008E01DE011201F3010300F101F401F4010D
:103F6000F8012801220212013A020900652C3B02E5
:103F70003B023D02662C3F024002410241024602E2
:103F80000A015302400081018601550289018A011C
:103F900058028F015A0290015C025D025E025F02CC
:103FA0009301610262029401640265026602670283
:103FB000970196016A02622C6C026D026E029C01EE
:103FC000700271029D01730274029F0176027702F2
:103FD000780279027A027B027C02642C7E027F02E4
:103FE000A60181028202A90184028502860287025B
:103FF000AE014402B101B20145028D028E028F0270
:1040000090029102B7017B030300FD03FE03FF034F
:10401000AC0304008603880389038A03B1031103F8
:10402000C2030200A303A303C4030803CC030300D9
:104030008C038E038F03D8031801F2030A00F903DF
:10404000F303F403F503F603F703F703F903FA03A5
:10405000FA033004200350041007600422018A048C
:104060003601C1040E01CF040100C004D004440194
:104070006105260400007D1D0100632C001E9601D1
:10408000A01E5A01001F0806101F0606201F080662
:10409000301F0806401F0606511F0700591F521FF8
:1040A0005B1F541F5D1F561F5F1F601F0806701F98
:1040B0000E00BA1FBB1FC81FC91FCA1FCB1FDA1FA4
:1040C000DB1FF81FF91FEA1FEB1FFA1FFB1F801FE2
:1040D0000806901F0806A01F0806B01F0400B81F9E
:1040E000B91FB21FBC1FCC1F0100C31FD01F020687
:1040F000E01F0206E51F0100EC1FF31F0100FC1F7B
:104100004E210100322170211002842101008321FF
:10411000D0241A05302C2F04602C0201672C0601D4
:10412000752C0201802C6401002D260841FF1A0322
:10413000000000005553423200000000534432009A
:104140005553423300000000555342004E414E4447
:1041500000000000534400004346000052414D005F
:10416000804100080000002020000000F018000836
:10417000A041000820000020101B000000190008CA
:104180000000000000000000000001020304010222
:1041900003040607080900000000000000000000FA
:040000050800018965
:00000001FF
