:020000040800F2
:10000000481300203D020008A9070008A1070008C6
:10001000A5070008BD060008E7150008000000005D
:100020000000000000000000000000006D12000849
:10003000C106000800000000250800085D13000844
:10004000570200085702000857020008570200082C
:10005000570200085702000857020008570200081C
:10006000570200085702000857020008570200080C
:1000700057020008570200085702000857020008FC
:1000800057020008570200085702000857020008EC
:1000900057020008570200085702000857020008DC
:1000A00057020008570200085702000857020008CC
:1000B00057020008570200085702000857020008BC
:1000C00057020008570200085702000857020008AC
:1000D00057020008C9130008570200085702000819
:1000E000570200085702000857020008570200088C
:1000F000570200085702000857020008570200087C
:10010000570200085702000857020008570200086B
:10011000570200085702000857020008570200085B
:10012000570200085702000857020008570200084B
:10013000570200085702000857020008570200083B
:10014000570200085702000857020008570200082B
:10015000570200085702000857020008570200081B
:10016000570200085702000857020008570200080B
:1001700057020008570200085702000857020008FB
:10018000570200085702000800F002F800F046F895
:100190000AA090E8000C82448344AAF10107DA45E2
:1001A00001D100F03BF8AFF2090EBAE80F0013F0EE
:1001B000010F18BFFB1A43F001031847B8160000DF
:1001C000D8160000103A24BF78C878C1FAD8520770
:1001D00024BF30C830C144BF04680C6070470000C1
:1001E0000023002400250026103A28BF78C1FBD840
:1001F000520728BF30C148BF0B60704703681B0A15
:1002000028BF41F08001E42900F0BC800020704745
:100210001FB501F029FB1FBD10B510BD00F01CFA81
:100220001146FFF7F5FF01F033FA00F03AFA03B494
:10023000FFF7F2FF03BC01F0D8F90000094880473E
:1002400009480047FEE7FEE7FEE7FEE7FEE7FEE7B8
:10025000FEE7FEE7FEE7FEE704480549054A064BD0
:10026000704700006113000889010008480D002054
:1002700048130020480F0020480F0020704753EA21
:10028000020C00F069802DE9F04B4FF00006002BC6
:100290001FBFB3FA83F503FA05F424FA05F65E40AE
:1002A00012BF1643B2FA82F502FA05F4C5F1200531
:1002B0001EBF22FA05FC44EA0C04203556EA044C21
:1002C0004FEA144418BF641C4FF000084FF00009B7
:1002D000904271EB030C39D3002919BFB1FA81F7B1
:1002E00001FA07F6B0FA80F700FA07F6C7F120071F
:1002F0001EBF20FA07FC46EA0C062037B6FBF4FCCA
:10030000A7EB0507103F07F01F0BCBF120060CFAF7
:100310000BFB2CFA06F644BFB3460026202FA4BFE1
:100320005E464FF0000B5BEA060C08BF4FF0010B76
:1003300019EB0B09ABFB027C48EB0608C01B06FB64
:1003400002CC0BFB03CC71EB0C01C1E70B46024660
:1003500041464846BDE8F08B13B54FF000004FF022
:100360000001AFF30080BDE81C4070470FB40449A2
:1003700010B503AA029800F041F910BC5DF814FB17
:10038000080000202DE9F0418046D21D22F007022E
:100390000025D2E90002F52915A614D0011E72F13C
:1003A000000106DA0023D0EB030063EB020211A682
:1003B00008E0D8F800108B0701D50FA602E0490726
:1003C00001D50EA601251146002408F1240704E0FA
:1003D00000F076F830323A55641C50EA0102F7D149
:1003E0002B46324621464046BDE8F04100F0ADB80C
:1003F000000000002D0000002B0000002000000085
:100400002DE9F0410F460546002028622846E9689C
:10041000884770B3252805D0D5E901219047286A7F
:10042000401CF2E7E9682846002688476C28044605
:100430000AD0682C08D04C2C35D06A2C31D0742CC2
:1004400031D07A2C2FD016E0E96806462846884736
:10045000B042044608D16C2E23D04FF48066284663
:10046000E9688847044606E06C2E03D04FF4807696
:1004700001E01EE04026E4B1A4F14100192802D8B1
:10048000203446F400663A46214628462E60FFF79F
:10049000B5FE60B1012808D0FF1D27F00707083717
:1004A000B4E78026DBE70026D9E73F1DAEE720460C
:1004B000B2E7286ABDE8F08170477047704770471F
:1004C00030B5B0F10A024FEA900E71F100034EEA26
:1004D000817EB0EB0E0061EB91014FEA101E4EEAF7
:1004E000017E10EB0E0041EB11114FEA102E4EEA87
:1004F000016E10EB0E0041EB11214FEA104E4EEA57
:10050000014E10EB0E0041EB1141401841F100018A
:100510004FEAD00040EA41704FEAD10110EB80056C
:100520004FEA810444EA907444EB01046D1944EBF2
:100530000404521BA3414FF0000348BF0A3200D508
:1005400030BD401C41F1000130BD2DE9F0470D46A2
:1005500099469246044600F124080168880604D5AD
:10056000E06921F01001216000E00120A84201DDD6
:10057000471B00E00027A1697A1902EB0900081A5D
:10058000A0612078C00602D42046AFF30080002688
:1005900008E0D4E901211AF806009047206A401CBF
:1005A000761C20624E45F4DB2078C0060AD5204632
:1005B000AFF3008006E0D4E9012130209047206AA3
:1005C000401C2062381EA7F10107F4DC07E0D4E9E3
:1005D000012118F805009047206A401C2062281E5F
:1005E000A5F10105F3DC2046AFF30080207800067A
:1005F00002D50220BDE8F0870120FBE7074B70B56C
:100600000D467B4400F011F80446284600F020F81F
:1006100010B14FF0FF3070BD204670BD6F1000006C
:1006200001694A1C02610878704700B58FB0CDE9B6
:1006300001310021059105497944CDE903101146A6
:100640006846FFF7DDFE0FB000BD0000E5FFFFFFCD
:10065000007B00F080007047754600F02BF8AE4636
:1006600005006946534620F00700854618B020B5BE
:10067000FFF7F2FDBDE820404FF000064FF0000705
:100680004FF000084FF0000B21F00701AC46ACE83A
:10069000C009ACE8C009ACE8C009ACE8C0098D46A7
:1006A000704710B50446AFF300802046BDE8104007
:1006B000FFF7BDBD00487047E80C002000BFFEE713
:1006C0007047F0B50A4600210023002400BF3DE03A
:1006D000012505FA01F3156805EA03049C4234D1AB
:1006E00005684F000326BE40B543056015794E00EE
:1006F000B5400668354305601579012D02D015799E
:10070000022D16D185684F000326BE40B543856093
:1007100055794E00B54086683543856045680126A9
:100720008E40B5434560456896798E40B6B23543F4
:100730004560C5684F000326BE40B543C560D57906
:100740004E00B540C6683543C560491C1029BFD36B
:10075000F0BDF0B5002300244D07ED0E02FA05F3BD
:10076000CE1000F1200555F826504E07F70E0F2643
:10077000BE40B543CF1000F1200646F82750CE10FA
:1007800000F1200555F8265045EA0304CE1000F18B
:10079000200545F82640F0BD41837047018370472E
:1007A00000BFFEE700BFFEE77047000070B5002104
:1007B00000230F22C4781CB3174C246804F4E064AF
:1007C000C4F5E064C4F30721C1F10404E3B20A41B3
:1007D00044789C40E1B28478144021430C07210EF8
:1007E0000E4C05786155047804F01F050124AC40D7
:1007F00005786D11AD0005F1E025C5F8004109E06F
:10080000047804F01F050124AC40054D06787611EC
:1008100045F8264070BD00000CED00E000E400E06B
:1008200080E100E07047000029B1064A12680243E7
:10083000044B1A6004E0034A12688243014B1A60B9
:10084000704700003038024029B1064A126802435E
:10085000044B1A6004E0034A12688243014B1A6099
:10086000704700002038024029B1064A126802434E
:10087000044B1A6004E0034A12688243014B1A6079
:10088000704700004438024029B1064A126802430A
:10089000044B1A6004E0034A12688243014B1A6059
:1008A0007047000024380240F0B5002100220024E7
:1008B000022500260223324F3F6807F00C0121B1C8
:1008C000042905D0082937D105E02E4F076036E00E
:1008D0002D4F076033E02A4F3F1F3F68C7F3805614
:1008E000274F3F1F3F6807F03F036EB1264FB7FB0E
:1008F000F3F7DFF88CC0ACF1040CDCF800C0CCF3EB
:10090000881C07FB0CF40CE01E4FB7FBF3F7DFF875
:1009100070C0ACF1040CDCF800C0CCF3881C07FB01
:100920000CF4174F3F1F3F68C7F301477F1C7D0042
:10093000B4FBF5F7076002E0124F076000BF00BF8D
:100940000F4F3F6807F0F0010909104F7A5C076804
:10095000D74047600A4F3F6807F4E051890A0B4FC0
:100960007A5C4768D7408760054F3F6807F460416D
:10097000490B064F7A5C4768D740C760F0BD00005E
:10098000083802400024F40000127A000E00002013
:1009900010B510210348FFF701FFFF2000F0E6F932
:1009A00010BD00000000024070B505460122002184
:1009B000092000F0FBF9044624B91021284600F074
:1009C000B9F90446FFF7E4FF0CB1012070BD002027
:1009D000FCE770B5054640F6FF7401E0601E84B286
:1009E000FF2000F0C3F9A84201D0002CF6D10CB9C9
:1009F000FF2070BD0020FCE77FB56846FFF7D4FFFD
:100A000010B1002004B070BD9DF8000000F0C000DF
:100A1000402809D19DF809009DF8081000EB01203D
:100A2000401C84B2A50220E09DF8050000F00F00F4
:100A30009DF80A1000EBD1109DF8091001F0030198
:100A400000EB4100861C9DF8080080119DF80710FE
:100A500000EB81009DF8061001F0030100EB8120FE
:100A6000441CA6F1090004FA00F52846CAE7000074
:100A7000F8B500F0CBFA00F084F94FF47A7000F08A
:100A8000B6FD002504E0FF2000F070F9681C85B277
:100A90000A2DF8DB4FF4FA6600BF952200210846C4
:100AA00000F084F90446012C04D0301EA6F10101A7
:100AB0008EB2F2D1002051490870012C4AD1872210
:100AC0004FF4D571082000F071F9012847D10025B5
:100AD00006E0FF2000F04AF90DF80500681C85B219
:100AE000042DF6DB9DF80200012879D19DF8030062
:100AF000AA2875D14FF6FE7600BF012200213720CB
:100B000000F054F901229107292000F04FF9044622
:100B100024B1301EA6F101018EB2EED1002E5FD0BD
:100B2000012200213A2000F041F9002858D1002587
:100B300006E0FF2000F01AF90DF80500681C85B2E8
:100B4000042DF6DB9DF8000000F0400018B10620EF
:100B50002A49087044E004202849087040E0012236
:100B60000021372000F022F901220021292000F085
:100B70001DF90446012C17DC0220204908704FF6AD
:100B8000FE7600BF01220021372000F00FF901227C
:100B90000021292000F00AF90446BCB1301EA6F15C
:100BA00001018EB2EED111E00120144908704FF618
:100BB000FE7600BF01220021104600F0F7F804463F
:100BC00024B1301EA6F101018EB2F3D12EB1012263
:100BD0005102102000F0EAF810B100200749087017
:100BE000FFF7D6FE00F0C8F80448007808B10020EE
:100BF000F8BD0CB12046FBE7AA20F9E70000002071
:100C00002DE9F04105460E46144600F0B5F81848A7
:100C10000078062800D06D0201222946122000F03B
:100C2000C5F8074617B13846BDE8F08100BF00227D
:100C30004FF40071304600F03FF800B105E006F5D2
:100C40000076601EC0B2041EF1D100BF0122002157
:100C50000C2000F0ABF810210648FFF79DFDFF20A7
:100C600000F084F80CB12046DEE70020DCE700004D
:100C7000000000200000024070B505460E4600F05E
:100C80007BF80C480078062800D06D020122294626
:100C9000112000F08BF804460CB1204670BD4FF4D3
:100CA0000071304600F046F804460CB12046F5E7E6
:100CB0000020F3E7000000202DE9F04104468846BB
:100CC000164610211A48FFF769FD002700BFFF20D4
:100CD00000F04CF80546781C87B2B7F57A6F06DD50
:100CE00010211348FFF758FD0120BDE8F081FE2DCB
:100CF000EDD104E0FF2000F039F82070641CB8F159
:100D00000000A8F101011FFA81F8F3D1FF2000F0E3
:100D10002DF8FF2000F02AF8012E06D110210448FA
:100D2000FFF73AFDFF2000F021F80020DDE700008A
:100D30000000024070B504460D46FE20FFF749FE54
:100D400008B1012070BD04E0FF2000F061FA2070BE
:100D5000641C281EA5F101018DB2F5D1FF2000F021
:100D600005F8FF2000F002F80020EBE710B504467C
:100D7000204600F04DFA10BD10B5002000F064FAD6
:100D800010BD10B5382000F05FFA10BD10B510216D
:100D90000548FFF701FD00F045F808B9002010BD37
:100DA000FFF7F6FD0120FAE7000002402DE9F041CF
:100DB00005460C4617464FF00008FFF7E9FDFFF720
:100DC000E5FF10B1FF20BDE8F08145F04000FFF7DE
:100DD000CDFF200EFFF7CAFFC4F30740FFF7C6FFA1
:100DE000C4F30720FFF7C2FFE0B2FFF7BFFF3846AA
:100DF000FFF7BCFF0C2D02D1FF20FFF7B7FF4FF02C
:100E00001F0800BFFF20FFF7B1FF064606F0800075
:100E100030B1B8F10000A8F1010101F0FF08F1D1F3
:100E20003046D0E710B5002400BFFF20FFF79EFF3B
:100E3000FF2801D1002010BD641C6FF07F40844268
:100E4000F3D30120F7E700002DE9F04106460F46F5
:100E50001446FFF791FF37480078062800D0760245
:100E600034480078012805D0012221461720FFF7D9
:100E70009DFF0546012231461920FFF797FF0546E1
:100E800015B12846BDE8F08110212B48FFF786FCFC
:100E9000FF20FFF76BFFFF20FFF768FFFF20FFF742
:100EA00065FF00BFFC20FFF761FF4FF0000807E07F
:100EB00017F8010BFFF75AFF08F101001FFA80F83D
:100EC000B8F5007FF4DBFF20FFF750FFFF20FFF7AE
:100ED0004DFFFF20FFF74AFF054605F01F000528DC
:100EE00005D010211448FFF757FC2846CAE7FFF742
:100EF00099FF012805D110210F48FFF74DFC012073
:100F0000C0E7601EC0B2041ECCD1FD20FFF72EFF4B
:100F1000FFF788FF28B110210748FFF73DFC0120AB
:100F2000B0E710210448FFF737FCFF20FFF71EFF52
:100F30002046A7E700000020000002402DE9F04114
:100F400005460E46FFF718FF2E480078062800D009
:100F50006D02002229461820FFF728FF044614B12D
:100F60002046BDE8F08110212748FFF717FCFF203D
:100F7000FFF7FCFEFF20FFF7F9FEFF20FFF7F6FE6C
:100F8000FE20FFF7F3FE002705E016F8010BFFF740
:100F9000EDFE781C87B2B7F5007FF6DBFF20FFF788
:100FA000E5FEFF20FFF7E2FEFF20FFF7DFFE04462D
:100FB00004F01F00052805D010211348FFF7ECFBB3
:100FC0002046CEE74FF000080DE008F101001FFABF
:100FD00080F84FF6FE70804505DD10210A48FFF7C6
:100FE000DBFB0120BDE7FF20FFF7C0FE0028ECD0AF
:100FF00010210548FFF7D0FBFF20FFF7B7FE0020C8
:10100000AFE70000000000200000024000B587B0FC
:1010100001210846FFF708FC01210803FFF724FC23
:10102000052211463048FFF794FB052206212E4881
:10103000FFF78FFB052207212B48FFF78AFB0220D1
:101040008DF8180000208DF81A0001208DF81B0083
:10105000E020059002208DF8190005A92248FFF72D
:1010600030FB01208DF8180000208DF81A000120B7
:101070008DF81B001020059002208DF8190005A99D
:101080001948FFF71EFB10211748FFF787FB174889
:1010900000F03AF80020ADF800004FF48270ADF88F
:1010A00002000020ADF804000220ADF80600012087
:1010B000ADF808004002ADF80A003820ADF80C0089
:1010C0000020ADF80E000720ADF810006946074873
:1010D00000F080F80021054800F00AF801210348DB
:1010E00000F006F807B000BD0000024000300140EB
:1010F00021B1028842F04002028004E002884FF6EB
:10110000BF731A400280704710B5044624488442D9
:1011100008D101218014FFF7B7FB0021A014FFF7CD
:10112000B3FB3CE01F48844208D101210014FFF7C3
:101130008BFB00212014FFF787FB30E01A48844224
:1011400008D10121C013FFF77FFB0021E013FFF757
:101150007BFB24E01548844208D101214014FFF7AD
:1011600093FB00216014FFF78FFB18E010488442C6
:1011700009D101210805FFF787FB00214FF48010FA
:10118000FFF782FB0BE00B48844208D101214805A0
:10119000FFF77AFB00214FF40010FFF775FB10BD3D
:1011A0000030014000380040003C00400034014065
:1011B00000500140005401400246002013890B40BA
:1011C0000BB1012000E0002070470146888970477C
:1011D0008181704710B50022028802F441520B88C9
:1011E0004C8823438C882343CC8823430C89234396
:1011F0004C8923438C892343CC8923431A4302809F
:10120000838B4FF2FF74234083830B8A038210BDCC
:1012100070B5044600BF02210A48FFF7CDFF002841
:10122000F9D021460748FFF7D3FF00BF0121054849
:10123000FFF7C2FF0028F9D00248FFF7C6FFC5B28A
:10124000284670BD0030014010B586B00446ADF8A8
:10125000104001A90448FFF7BDFF01210248FFF734
:1012600047FF06B010BD000000300140704700008D
:101270000CB50020019000903448006840F48030A4
:101280003249086000BF3148006800F40030009027
:101290000198401C0190009818B90198B0F5A04F32
:1012A000F1D12A48006800F4003010B1012000900C
:1012B00001E0002000900098012846D123484030EA
:1012C000006840F0805021494031086020480068A3
:1012D00040F440401E4908601C48083000681B4923
:1012E000083108600846006840F40040086008467D
:1012F000006840F4A05008601648091F0860081FE5
:10130000006840F08070091F086000BF0F48006847
:1013100000F000700028F9D040F205700E49086016
:101320000A480830006820F00300084908310860C6
:101330000846006840F00200086000BF034808301B
:10134000006800F00C000828F8D10CBD00380240FD
:101350000070004008544007003C02407047000005
:1013600010B51548006840F4700013490860134830
:10137000006840F001001149086000200F49083161
:1013800008600E4800680E4908400C4908600D4886
:10139000091D0860081F006820F48020091F0860EC
:1013A000002006490C310860FFF762FF4FF0006033
:1013B00001498039086010BD88ED00E00038024026
:1013C000FFFFF6FE1030002410B540F225511D48F5
:1013D00000F04AF810B31B4800F000F9C4B21A48F4
:1013E000008800F40040C8B91748008800F4804025
:1013F00060B10A2C03D000201349088020E0124875
:10140000008840F400401049088019E00D2C06D1F6
:101410000D48008840F480400B49088010E00A48DD
:101420000088C0F30D0009490C5407480088401C8F
:101430000549088008460088C72801DD002008808B
:1014400010BD0000001001400C000020200C002006
:1014500021B1828942F40052828104E082894DF6F2
:10146000FF731A408281704770B502460024002342
:101470000025002040F66A16B14200D100BFC1F33A
:10148000421501F01F03012606FA03F3012D02D1D4
:101490009689334006E0022D02D1168A334001E0DE
:1014A000968A33400C12012606FA04F4168834405A
:1014B00013B10CB1012000E0002070BDF0B503466F
:1014C000002400260025002040F66A17B94200D10A
:1014D00000BF1846C1F3421401F01F06012707FAA6
:1014E00006F5012C01D10C3004E0022C01D11030A2
:1014F00000E014301AB107682F43076002E0076864
:10150000AF430760F0BD00002DE9FF4705460E46DA
:101510000024A14600BFA046B08900B100BF2C8ABC
:1015200024F44054F08804432C82AC8941F20C60CE
:101530008443B08831890843718908430443AC81EE
:10154000AC8A24F44074B0890443AC826846FFF747
:10155000ABF92048854202D01F48854202D1DDF810
:101560000C9001E0DDF80890A88900F4004040B13B
:1015700009EBC90000EB091031684900B0FBF1F735
:1015800007E009EBC90000EB091031688900B0FBE6
:10159000F1F76420B7FBF0F004012009642101FB9E
:1015A0001078A88900F4004040B1322000EBC80058
:1015B000B0FBF1F000F00700044308E0322000EB3C
:1015C00008106421B0FBF1F000F00F0004432C81FF
:1015D000BDE8FF87001001400014014001468888E3
:1015E000C0F30800704700BFFEE700BF704770B54A
:1015F00004464FF4077094FBF0F0C6B24FF4077046
:1016000094FBF0F100FB114085B205E04FF4077048
:1016100000F00AF8701EC6B2002EF7D115B12846A8
:1016200000F002F870BD00000146114A12884A43DA
:101630004FF0E0235A6100229A611A46126942F083
:1016400001021A6100BF4FF0E022106900F00102B0
:101650001AB100F48032002AF5D04FF0E02212696E
:1016600022F001024FF0E0231A6100229A617047D4
:101670000400002000BF054A128802F04002002A40
:10168000F9D0C2B2014B9A807047000000100140AF
:1016900000BF4FF4E13000F091F84FF0000A07E08E
:1016A00044202C4901F80A000AF101001FFA80FACF
:1016B000BAF5C06FF4DBFFF7DBF920B1012806D0E3
:1016C00063280CD107E024A0FEF750FE0BE029A010
:1016D000FEF74CFE07E02AA0FEF748FE03E02BA031
:1016E000FEF744FE00BF00BFFFF786F90025044661
:1016F0004FF400714FF0000C2246A2FB016B05FB7A
:1017000001B104FB0C114FF4806263463046FEF7D2
:10171000B6FD80464FF480620023FEF7B0FD04461C
:101720000D4622462B461DA0FEF720FE09491E202D
:10173000FFF704FC20491E20FFF79EFA032205490B
:101740003220FFF781FB03221B493220FFF758FAB2
:1017500000BFFEE7200000200D0A534420436172C1
:101760006420496E69742053756363657373210D3A
:101770000A00000054696D65204F7574210A00004D
:101780004E6F2043617264210A000000756E6B6E1B
:101790006F776E206572720A0000000023205344A8
:1017A00020436172642053697A653A20256C6C6429
:1017B0004D420D0A000000002006002010B588B040
:1017C000044601210846FFF72FF801211020FFF7FA
:1017D0004BF8072209212248FEF7BBFF07220A2106
:1017E0001F48FEF7B6FF4FF4C060069002208DF848
:1017F0001C008DF81D0000208DF81E0001208DF8C2
:101800001F0006A91648FEF75CFF02940020ADF801
:101810000C00ADF80E00ADF81000ADF814000C206F
:10182000ADF8120002A90F48FFF76EFE01210D4826
:10183000FFF70EFE012240F225510A48FFF73EFE57
:1018400025208DF8040003208DF805008DF8060092
:1018500001208DF8070001A8FEF7A8FF08B010BD11
:1018600000000240001001404FF04070E1EE100A0D
:1018700070470000941800080000002020000000BD
:10188000C4010008B418000820000020281300003C
:10189000E00100080000000000000000000000005F
:1018A0000000000000000102030401020304060717
:0418B0000809000023
:040000050800018965
:00000001FF
